:200000000C94AA010C9400000C9400000C9400000C9400000C9400000C9400000C94200A0B
:200020000C944B0A0C94E30C0C9400000C94460C0C9400000C9400000C94AA0C0C94000074
:200040000C9400000C9400000C9400000C9400000C9400000C9400000C9400000C940000A0
:200060000C9400000C9400000C9400000C9400000C94760A0C9400000C9485040C94000077
:200080000C9400000C9400000C9400004F0A4F0A00004F0A00002D084F0A0000400C00009B
:2000A0000000000020060000000000002D0800000000200600000000260500000000E006AE
:2000C0000000B70700004807E006000020064F0A400CC00D0000E90A400C00004F0A0000FD
:2000E0002D082D09B707000000002D0800000000200600000000260500000000E00600006B
:20010000B70700004807E006000020064F0A400CC00D0000E90A400C00004F0A00002D0887
:200120002D09B707000000001E1E1E1E1E1E1E1E1E1E1E1E1E1E1E1E1E1E1E1E1E1E1E1EFB
:200140001E1E1E1E1E1E1E1E232323181E1E1E1E1E1E1E1E1E1E1E1E1E1E1E1E1E1E1E1ED6
:200160001E1E1E1E1E1E1E232323181E1E1E1E1E1E1E1E1E1E1E1027E80364000A00010051
:2001800000100001100001000000640064000000000000004B616C6962726173692053650B
:2001A0006E736F720053656C65736169203E3E3E3E3E3E3E3E00446968656E74696B616EA8
:2001C000203E3E3E3E3E004D657261682D48696A61752D4269727500312E5761726E612087
:2001E0004D65726168203E3E0054656B616E20546F6D626F6C20313C3C00322E5761726E35
:20020000612048696A6175203E3E00332E5761726E612042697275203E3E3E00342E5761D0
:20022000726E6120486974616D203E3E00204D657261682064616E20426972752000322E3C
:200240005761726E61204269727520203E3E00332E5761726E6120486974616D203E3E3EF0
:2002600000486974616D50757469682D4D6572616800486974616D50757469682D48696A22
:20028000617500486974616D50757469682D426972752000312E5761726E61205075746992
:2002A00068203E3E00322E5761726E6120486974616D203E3E004C434420544553542E2EA3
:2002C0002E2E2E2E2E2E003132333435363738393031323334353600494D5520546573741D
:2002E000204F4B203E3E3E3E00576169742034204779726F73636F706500494D55205465A4
:200300007374204661696C203E3E00436865636B2048617264776172652121004779726FAF
:200320002043616C6C69627261746564000001002D4E414E00494E460000010002008801D2
:200340000000060004008E01000001006B092E0300000000F894EE27ECBBF1E0F5BFE5BFED
:20036000E0936C00F8E1F1BDE1BD8DE0A2E0BB27ED938A95E9F780E090E1A0E0B1E0ED93C7
:200380000197E9F7EAE3F3E0D0E0DBBF87919791009781F0A791B79107901790C791D79135
:2003A000BF01DBB7F001CBBF07900D920197E1F7FB01EBCFEFEFEDBFE0E1EEBFC0E0D9E0C3
:2003C0000C94310EA881B981E8EC0E94D710DF01E2E1F0E00E94DD10EC50FE4F1DC3E881AA
:2003E000F0E0FA93EA93EEDFFBBDEABDBEC3E881F0E0FA93EA93E6DFF9BDE8BDB6C31A93ED
:200400000A93EA81F0E0FA93EA93DCDF8F01109379000093780019810881F2C2AB81AA23B8
:2004200072F4EA81FB810E94A610EF2FF0E0E0938500EA81E195E09384001D9807C0EB8171
:20044000E0938500EA81E09384001D9AA981AA2372F4E881F9810E94A610EF2FF0E0E09392
:200460008700E881E195E09386001A9807C0E981E0938700E881E09386001A9A5BC3E0E04C
:20048000E0938700E0938600E0938500E09384000895E881E07FE460EBBB85E08A95F1F7BF
:2004A000DA9863C3D898E881E07FEC60EBBB85E08A95F1F7DA988BE18A95F1F7E881E29549
:2004C000E07FEC60EBBB85E08A95F1F7DA9880EF9AE00197F1F7DA9A48C3D89AE881E07FCB
:2004E000ED60EBBB85E08A95F1F7DA988BE18A95F1F7E881E295E07FED60EBBB85E08A9502
:20050000F1F7DA9885ED8A95F1F7DA9A2EC3E2E3F0E0FA93EA930E94E70EE0E3EA93B9DF95
:20052000E5E0F0E0FA93EA930E94E70EE0E3EA93B0DFE1E0F0E0FA93EA930E94E70EE0E3C1
:20054000EA93A7DFE1E0F0E0FA93EA930E94E70EE0E2EA939EDFE8E2EA93A4DFE0E1EA93A2
:20056000A1DFECE0EA939EDFE6E0EA939BDFE1E0EA9398DF08951A93E981E03019F4EA8187
:20058000E05802C0EA81E054EA938CDF188138C20E943C116BBFE691E030A1F00E943C1127
:2005A0006BBFE691EA9399DFDE010E942D11EF5FFF4F6F4F7F4F0E943211E150F0406040D8
:2005C0007040E6CFB7C2E0E0EA93ED81EA93D3DF0E943C110E945011DBDFFEC11A93E0E08B
:2005E000EA93EE81EA93C7DF10E01031B0F4E12FA981BA818B819C81FF27662777270E9486
:200600009C106BBFE691EA9368DFE2E3F0E0FA93EA930E94E70E1F5FE8CF188116C3E0E02C
:20062000E0937100E8E4E093700008951A93E4EAE0937400E0917400E078E1F3E091710035
:20064000E87F1E2F183011F0103109F403C0E1E01881E2C1E981E0937300E4E8E09374009C
:20066000E0917400E078E1F3E0917100E87F1E2F183111F0103409F403C0E1E01881CCC19E
:20068000E0E01881C9C1E4E9E0937400E0917400E071E1F708951A93E981E0937300E4E84F
:2006A000E0937400E0917400E078E1F3E0917100E87F1E2F183219F0E1E01881ADC1E0E0D1
:2006C0001881AAC1E4ECE0937400E0917400E078E1F307C0E4E8E0937400E0917400E07897
:2006E000E1F3E09173000895E0E0E3BFC498E0BF0895A881B981AD37E0E0BE0720F0A131FD
:20070000E7E2BE0708F060C0A881B981A03DE7E0BE0778F0EAE1E3BFE0E0E2BFE881F9814E
:2007200066277727A0E2B1EA87E090E00E941511E1BFA881B981A83EE3E0BE0778F0EBE12D
:20074000E3BFE0E0E2BFE881F98166277727A0E9B0ED83E090E00E94151134C0A881B98170
:20076000A43FE1E0BE0778F0ECE1E3BFE0E0E2BFE881F98166277727A8E4B8EE81E090E0C7
:200780000E9415111FC0A881B981AA3FE0E0BE0778F0EDE1E3BFE0E0E2BFE881F981662738
:2007A0007727ACEAB7E081E090E00E9415110AC0EEE1E3BFE0E0E2BFE881F981A6EDB3E828
:2007C0000E94DD10E1BF01C08FDF26C1EA81FB81FA93EA938EDFE881F981FA93EA930E94E7
:2007E000E70E82DFA7C1E8EEF3E0FA93EA93E4E6F0E0FA93EA93EADFE4EFF1E0FA93EA936D
:20080000E4E1F0E0FA93EA93E1DFE8EBFBE0FA93EA93E2E3F0E051C0E8EBFBE0FA93EA9363
:20082000E4E6F0E0FA93EA93D1DFE4EFF1E0FA93EA93E4E1F0E0FA93EA93C8DFE4ECF9E0C7
:20084000FA93EA93E6E9F0E0FA93EA93BFDFE4EFF1E0FA93EA93E4E1F0E0FA93EA93B6DF65
:20086000E8EEF3E0FA93EA93E2E3F0E0FA93EA93ADDFE4EFF1E0FA93EA93E4E1F0E0FA93CA
:20088000EA93A4DFE8EBFBE038C0E8EBFBE0FA93EA93E2E3F0E0FA93EA9398DFE4EFF1E040
:2008A000FA93EA93E4E1F0E0FA93EA938FDFE8EEF3E0FA93EA93E6E9F0E0FA93EA9386DF60
:2008C000E4EFF1E0FA93EA93E4E1F0E0FA93EA937DDFE8EBFBE0FA93EA93E4E6F0E0FA9390
:2008E000EA9374DFE4EFF1E0FA93EA93E4E1F0E0FA93EA936BDFE0EDF7E0FA93EA93E2E31E
:20090000F0E0FA93EA9362DF0895AA93EA93FA93EFB7EA932297E0919B00E983E0919C0077
:20092000E883E981EC71E9F4E0913B09F0E0E55DF64FA881A083A0913B09AF5FA0933B0956
:20094000A03119F4E0E0E0933B09A0913D09AF5FA0933D09A03129F4E0E0E0933D096894E1
:2009600024F82296E991EFBFF991E991A99118951A93AB81A13078F1E0EDEA9357DEEC8191
:20098000EA9389DE8BE18A95F1F7E1EDEA934EDEEB81E150EB831B811030E4F0103061F439
:2009A000E12FA981BA81F0E0EA0FFB1FFF93EF9391DEAF91BF910BC0E12FA981BA81F0E0BC
:2009C000EA0FFB1FFF93EF937DDEAF91BF91EC931150E2CF58DE188125960895E0EDEA9303
:2009E00025DEEA81EA9357DE8BE18A95F1F7E1EDEA931CDE6FDEA881B981EC9344DEE1E00D
:200A000023960895E0EDEA9311DEE981EA9343DEE881EA9340DE37DE229608951A9310E034
:200A2000AB81A13050F12197EE81EA93FE013196FA93EA93D3DF1E2FE030F1F02197ED81EE
:200A4000A1E00E94B210E1500E2EAD81EE81EA1BEF5FA02D0E94B210E883A981EA23E98315
:200A6000AD81EE81EA1BEF5FA9810E94BA10E983AB81BC81EC9321962196E12F1881E5C0E0
:200A8000A981A130B8F12197E0E0E883EC81EA93FE013196FA93EA93A1DFE03051F121978B
:200AA000EB81A1E00E94B210E1500E2EAB81EC81EA1BEF5FA02D0E94B210E883AB81EC8157
:200AC000EA1BEF5FAA810E94B210EA83E881AA81EA23EA83E881E095A981EA23E983EA81CD
:200AE000A981EA2BE983ED81EA93EA81EA938ADF219621961FC01A93EB81EA93EDB7FEB7D3
:200B0000FA93EA931F936ADF1F91A981A03031F0EA81A1E00E94B210E12B06C0EA81A1E0F7
:200B20000E94B210E095E1231E2FEB81EA931A9369DF188124960895EBE6EA93E6E0EA932C
:200B4000E0E0EA93D8DF08952197E5E7EA93E6E0EA93EA93FE013396FA93EA935FDFA8810A
:200B6000A43311F4E1E001C0E0E021960895E2E3F0E0FA93EA930E94E70EDEDFEAE0F0E076
:200B8000FA93EA930E94E70EEBE6EA93E2E0EA93E3E0EA93E1E0EA9373DFEAE1EA93E2E04D
:200BA000EA93E3E0EA93EA936BDFE9E1EA93E9E0EA9328DFEBE1EA93E4E0EA93E2E0EA9354
:200BC000EA935EDFECE1EA93E4E0EA93E2E0EA93E0E0EA9355DF08952697EBE3EA93E6E0B5
:200BE000EA93FE013296FA93EA93C2DEEC81FD81E0930309F0930409EA81FB81E0930509A5
:200C0000F0930609E881F981E0930709F09308091CC02697E3E4EA93E6E0EA93FE01329661
:200C2000FA93EA93A5DEEC81FD81E0930909F0930A09EA81FB81E0930B09F0930C09E881B2
:200C4000F981E0930D09F0930E09269608952C97EC85FD856E857F85A0E0B0E080E09FE3FF
:200C60000E94E90FE887F9876A877B87EC85FD856E857F85EC83FD836E837F830E94461133
:200C80000E94C210AFEDB9E587E39FE50E94A1100E944B110E943C11EC83FD836E837F8396
:200CA000A885B9858A859B850E94E90FAC81BD818E819F810E94E90FA0E0B0E080EC9FE3CE
:200CC0000E945A110E94920FAC81BD818E819F810E94E90FEC83FD836E837F83CAC260972B
:200CE000E0914E09F0914F096091500970915109AAE0B7ED83EA9BE30E94E90FEC83FD830C
:200D00006E837F83A0914A09B0914B0980914C0990914D090E94920FA0914609B091470996
:200D200080914809909149090E94920FAFE6B2E183E89AE30E94990FAAE0B7ED83EA9BE328
:200D40000E94E90FA0914209B091430980914409909145090E94990FE0934209F09343094C
:200D60006093440970934509AC81BD818E819F81E0914609F0914709609148097091490922
:200D80000E94920FE0934609F09347096093480970934909AC81BD818E819F81E0914A0984
:200DA000F0914B0960914C0970914D090E94920FE0934A09F0934B0960934C0970934D0940
:200DC000E0914E09F0914F096091500970915109A2E8B8EA8BE797E30E94990FE0934E09A1
:200DE000F0934F096093500970935109E0914209F09143096091440970914509AFE8B2EC24
:200E000085EF9CE30E94990FA0E0B0E080E89FE30E943710EC83FD836E837F83A091420954
:200E2000B091430980914409909145090E94E90FEC87FD876E877F87EC81FD816E817F81F2
:200E4000A0914A09B0914B0980914C0990914D090E94E90FE887F9876A877B87E0910B099B
:200E6000F0910C090E94CC100E945F0FA0911309B091140980911509909116090E94920FF1
:200E8000AAE0B8ED8FE199E30E94E90FA0911F09B091200980912109909122090E94990F09
:200EA000E0931F09F09320096093210970932209A0910309B09104090E94671114F00C9457
:200EC000B307E0910709F09108090E94CC100E945F0F7F936F93FF93EF93E0910309F09191
:200EE00004090E94CC100E945F0FDF01CB01E0910309F09104090E94CC100E945F0F0E9470
:200F0000E90F7F936F93FF93EF93E0910509F09106090E94CC100E945F0FDF01CB01E091F7
:200F20000509F09106090E94CC100E945F0F0E94E90FAF91BF918F919F910E94990F0E941F
:200F4000501185DEAF91BF918F919F910E94E90F0E9450110E94D30EA1EEBEE285E692E4BD
:200F60000E94E90FBAC0A0910709B09108090E94671114F00C941208E0910309F0910409E7
:200F80000E94CC100E945F0F7F936F93FF93EF93E0910709F09108090E94CC100E945F0FFA
:200FA000DF01CB01E0910709F09108090E94CC100E945F0F0E94E90F7F936F93FF93EF9322
:200FC000E0910509F09106090E94CC100E945F0FDF01CB01E0910509F09106090E94CC103B
:200FE0000E945F0F0E94E90FAF91BF918F919F910E94990F0E9450112ADEAF91BF918F9162
:201000009F910E94E90F0E9450110E94D30EA1EEBEE285E692E40E94E90FA0E0B0E084EB57
:2010200092E457C0E0910309F09104090E94CC100E945F0F7F936F93FF93EF93E0910709E1
:20104000F09108090E94CC100E945F0FDF01CB01E0910709F09108090E94CC100E945F0F23
:201060000E94E90F7F936F93FF93EF93E0910509F09106090E94CC100E945F0FDF01CB0165
:20108000E0910509F09106090E94CC100E945F0F0E94E90FAF91BF918F919F910E94990FEF
:2010A0000E945011D4DDAF91BF918F919F910E94E90F0E9450110E94D30EA1EEBEE285E6E2
:2010C00092E40E94E90FDF01CB01E0E0F0E064EB72E40E945A110E94920F0E944611A091A5
:2010E0001F09B091200980912109909122090E94920FEC83FD836E837F83AC85BD858E852C
:201100009F850E94E90FA0911F09B091200980912109909122090E94990FE0931F09F0935F
:2011200020096093210970932209EC81FD816E817F81A885B9858A859B850E94E90FA091FC
:201140001309B091140980911509909116090E94990FE0931309F093140960931509709319
:201160001609E0914209F09143096091440970914509AC85BD858E859F850E94E90FA091C5
:201180004209B091430980914409909145090E945A110E94920FE0934209F09343096093DA
:2011A000440970934509E0914609F09147096091480970914909AC85BD858E859F850E941F
:2011C000E90FA0914609B091470980914809909149090E945A110E94920FE0934609F0939C
:2011E00047096093480970934909E0914209F09143096091440970914509A885B9858A8576
:201200009B850E94E90FA0914A09B0914B0980914C0990914D090E945A110E94920FE0935B
:201220004A09F0934B0960934C0970934D09E0914609F09147096091480970914909A88590
:20124000B9858A859B850E94E90FA0914E09B0914F0980915009909151090E945A110E94D2
:20126000920FE0934E09F0934F09609350097093510960960895E0910909F0910A090E9433
:20128000CC100E945F0FA0910F09B091100980911109909112090E94920FAAE0B8ED8FE176
:2012A00099E30E94E90FA0912309B091240980912509909126090E94990FE0932309F09352
:2012C0002409609325097093260908951A93E0E0E0930F09E0931009E0931109E093120952
:2012E000E0931309E0931409E0931509E0931609E0931709E0931809E0931909E0931A095A
:2013000010E0143610F00C94DC0983DCE0910909F0910A09A0910F09B091100980911109CA
:20132000909112090E94CC100E945F0F0E94990FE0930F09F0931009609311097093120947
:20134000E0910B09F0910C09A0911309B091140980911509909116090E94CC100E945F0FCA
:201360000E94990FE0931309F09314096093150970931609E0910D09F0910E09A091170951
:20138000B09118098091190990911A090E94CC100E945F0F0E94990FE0931709F093180965
:2013A0006093190970931A09E1E0F0E0FA93EA930E94E70E1F5FA5CFA0910F09B09110092B
:2013C0008091110990911209EAE0F7ED63E27CE30E94E90FE0930F09F09310096093110986
:2013E00070931209A0911309B09114098091150990911609EAE0F7ED63E27CE30E94E90FC9
:20140000E0931309F09314096093150970931609A0911709B09118098091190990911A0940
:20142000EAE0F7ED63E27CE30E94E90FE0931709F09318096093190970931A091991089507
:20144000EA93FA93EFB7EA930E9B0EC0B09B06C0F894F20131962F01789405C0F894F20111
:2014600031972F0178940DC0B09B06C0F894F20131972F01789405C0F894F20131962F01CC
:201480007894E0912909EF5FE0932909E991EFBFF991E9911895EA93FA93EFB7EA930F9BFA
:2014A0000EC0B29B06C0F894F30131973F01789405C0F894F30131963F0178940DC0B29B45
:2014C00006C0F894F30131963F01789405C0F894F30131973F017894E0912A09EF5FE093F5
:2014E0002A09E991EFBFF991E9911895AA93BA93EA93FA93EFB7EA93A3E5B9E0ED91FD91FC
:201500003196FE93EE93E135A0E0FA0768F0A0915309B0915409A132E3E0BE0728F0E0E0A5
:20152000E0935309E0935409E991EFBFF991E991B991A99118956497A0916109B09162096D
:20154000F201EA1BFB0B0F01A0916309B0916409F301EA1BFB0BE00DF11D0E94CC100E9418
:201560005F0FA0E0B0E080E09FE30E94E90FA09100090E94D1100E9457110E945A110E94FB
:20158000920F0E944611409261095092620960926309709264090E944111EDECFCEC6CEC4E
:2015A0007DE30E94E90FA0915509B091560980915709909158090E94990FE0935509F09371
:2015C000560960935709709358090E94280F34972CF0E0E0F0E060E470E412C0E09155096C
:2015E000F091560960915709709158090E94280FED3FAFEFFA0764F4E0E0F0E060E470EC2C
:20160000E0935509F093560960935709709358090E944111EDECFCEC6CE47EE30E94E90F60
:20162000A0E0B0E080E490EC0E94990FA0915509B091560980915709909158090E94990F04
:20164000E88BF98B6A8B7B8BE0911F09F091200960912109709122090E94280FED3224F4FE
:20166000AE2FE3EDEA170CF0FEC0A0911F09B09120098091210990912209E889F9896A89D2
:201680007B890E94920FEC87FD876E877F87AC85BD858E859F85E3E3F3E363EB7EE30E947A
:2016A000E90FA0915D09B0915E0980915F09909160090E94990FE0935D09F0935E096093F0
:2016C0005F0970936009EC85FD856E857F85E0935909F0935A0960935B0970935C09A091A1
:2016E0005D09B0915E0980915F0990916009E0E0F0E068EC72E40E947C1009F010F40C94D4
:20170000820B0FC0A0915D09B0915E0980915F0990916009E0E0F0E068EC72EC0E947C10BB
:2017200040F4E0935D09F0935E0960935F0970936009E0910B09F0910C090E94CC100E94B0
:201740005F0FA0911309B091140980911509909116090E94920F0E94F30EE887F9876A873B
:201760007B87E0915909F0915A0960915B0970915C09AC85BD858E859F850E94990FA0E081
:20178000B0E080EC90E40E94E90F7F936F93FF93EF93A885B9858A859B85EAE0F7ED63EA82
:2017A0007CE30E94E90FAF91BF918F919F910E94990F7F936F93FF93EF93E0915D09F09186
:2017C0005E0960915F0970916009A0E0B0E080E490E40E94E90FAF91BF918F919F910E94DB
:2017E000990FEC83FD836E837F83AC81BD818E819F81E0E0F0E068EC73E40E947C1009F063
:2018000010F40C94040C0BC0AC81BD818E819F81E0E0F0E068EC73EC0E947C1020F4EC83BB
:20182000FD836E837F83EC81FD816E817F810E94280FDF01E0910109F0910209AE1BBF0B08
:20184000BA93AA93EE81FF81688579850E94280FA0910109B0910209EA0FFB1FFA93EA93A7
:201860000E940E0211C0E0E0F0E0FA93EA93FA93EA930E940E02E0E0E0935D09E0935E091C
:20188000E0935F09E0936009649608950A921A92FA926A937A938A939A93AA93BA93EA93CB
:2018A000FA93EBB7EA93EFB7EA937894A0916509AF5FA0936509A53030F0E0E0E093650969
:2018C000EAEAEFBD05C0E2E0EFBDC598C698C79820FE30C0A0916709AF5FA0936709E0916A
:2018E0006609FF2766277727E85DFE4F6F4F6BBFE691AE17F8F0E0E0E0936709E091660907
:20190000ACE8B0E080E0FF27662777270E94C7100E949C100E943711FA93EA930E94790319
:20192000A0916609AF5FA0936609AE3418F0E0E0E0936609E991EFBFE991EBBFF991E9917B
:20194000B991A9919991899179916991F9901990099018950A921A92FA926A937A938A9348
:201960009A93AA93BA93EA93FA93EBB7EA93EFB7EA931A93789423FE15C0192D0E94EC05DC
:201980000E9409060E946F060E943B09D4DD191518F4E92DE11B04C0EFEFE11BE90DEF5FBA
:2019A000E09352091991E991EFBFE991EBBFF991E991B991A9919991899179916991F9900A
:2019C000199009901895AA93EA93EFB7EA9393947894A0916A09AF5FA0936A09A430D9F40F
:2019E000E0916809A0912909EA1730F4A0916809E0912909EA1B08C0A0916809EFEFEA1BE6
:201A0000A0912909EA0FEF5FE0932709E0912909E093680928C0A0916A09A53021F1A930A6
:201A2000D9F4E0916909A0912A09EA1730F4A0916909E0912A09EA1B08C0A0916909EFEFD8
:201A4000EA1BA0912A09EA0FEF5FE0932809E0912A09E093690907C0A0916A09AA3018F05C
:201A6000E0E0E0936A09E991EFBFE991A9911895E0E0EBBBEFEFEABBE5E0E8BBE8EFE7BB6D
:201A8000EFEFE5BBE0EFE4BBE0E0E2BBE0EFE1BBE0ECE3B9ECE3E2B9E0E0E0936200E093B8
:201AA0006100E7E1E0936500E0E0E0936400E0BFE3BFE2BFE1BFEAEAEFBDE2E1EEBDE0E05E
:201AC000EDBDECBDE7E2E7BDE0E1E6BDE3E1E7BDE8E8E6BDE0E0EBBDEABDE9BDE8BDE0933A
:201AE0007900E0937800EBE0E5BDE0E0E4BDEAEFE3BDE2EFE0938B00E1E1E0938A00E0E0ED
:201B0000E0938900E0938800E1E0E0938100E0E9E0938000E0E0E0938700E0938600E09337
:201B20008500E0938400E0938300E8ECE0938200E0E0E0936A00E0E5EABFE0ECE9BFE8BF44
:201B4000E4EAE7BFE2E0E0937D00E0E0E0939B00E8E9E0939A00E6E0E0939D00E0E0E093AA
:201B60009800E7E6E0939900E0E8E8B9E0E0E0BD0E9487020E943F02EAE5EA930E94EF0142
:201B8000EAE5EA930E94F701EAE5EA930E94FF01F894E0E0EA93E6EBF2E060E070E00E94D3
:201BA00050110E94EE02E1E0EA93E7ECF2E060E070E00E9450110E94EE020E940F03E4E6AC
:201BC000F0E0FA93EA930E94E70E0E94B705689422F80E94A405E030B9F0E0E0EA93E8ED0A
:201BE000F2E060E070E00E9450110E94EE02E1E0EA93E9EEF2E060E070E00E9450110E94D2
:201C0000EE020E94F30316C0E0E0EA93EAEFF2E060E070E00E9450110E94EE02E1E0EA931B
:201C2000EBE0F3E060E070E00E9450110E94EE020E940C04E0E2F3E0FA93EA930E94E70EF9
:201C40000E946609E1E0EA93ECE1F3E060E070E00E9450110E94E3020E9445047894789478
:201C6000089506DFE0E0E0930009E0930109E0930209689423F8E4EFF1E0FA93EA930E9444
:201C8000E70EFFCFFFCF2497EC81FD816E817F81AC81BD818E819F810E94E90F0E944611F1
:201CA000A5E6B0ED8BEC90E40E94E90FAEE4BFE88AE491E40E94990FAC81BD818E819F8177
:201CC0000E94E90F7F936F93FF93EF930E943C11A0E0BDE689E291E40E94990F0E94411112
:201CE0000E94E90FAEE4BFE88AE491E40E94990FAF91BF918F919F910E94371028960895C0
:201D00000E944111EDECF3E164ED7EE30E947C1030F40E943C110E945011B5DF56C00E94E0
:201D20004111EAE7F2E86AE170E40E947C1009F010F40C94AF0E0E943C11A0E0B0E080E818
:201D40009FE30E9437100E9450119DDFABEDBFE089EC9FE30E945A110E94920F36C00E9483
:201D60003C11A0E0B0E080E89FE30E94920F7F936F93FF93EF930E943C11A0E0B0E080E84A
:201D80009FE30E94990FAF91BF918F919F910E9437100E94501177DFABEDBFE089E49FE32F
:201DA0000E94990F12C0AB81AA2332F00E943C110E945011A5DF09C00E943C110E94F30E1B
:201DC0000E9450119DDF0E94F30E24960895E991F991309639F080EA9FE00197F1F7A895F1
:201DE0003197C9F7089530976040704009F070580895552342F4503811F4E0FF04C03196A4
:201E0000691F791F6BF050E8572711F45F93CFC05F3F31F0660F000C57956795752F0895A2
:201E20005F9300200AF0CFC0C8C050E8192E1522880F991F9527550F879550E8072E0522AA
:201E4000660F771F7527550F67950895689401C0E8945F93F2DF703818F07F3F08F4A7C011
:201E600056E1571BAAF4519558300EF4593030F0EFEFFFEF6FEF7FE777F91AC07727552312
:201E8000B9F0EE0FFF1F661F771F5A95D1F710C07727583028F0EF2FF62F672F5850F9CF55
:201EA000552331F076956795F795E7955A95D1F700200AF44FD15F910895689401C0E894BF
:201EC000309760407040B1F0002426F0772312F4009440D1172E7EE1112032F07A95EE0FC8
:201EE000FF1F661F111CF9CFEF2FF62F612D5F938ADF5F9108954F93AF01FD01DA01AB017A
:201F0000BC01CA01402D012C142E4F910895EA0FFB1F681F0895E095F0956095EF5FFF4F1E
:201F20006F4F08955F9381DF903871F150E8152604C05F937ADF903839F1703821F1572F16
:201F4000591B2BF112F4D7DFFACF583118F0AA27BB278827583028F0AB2FB82F88275850C1
:201F6000F9CF552329F08695B795A7955A95D9F7502D512572F0CBDF38F46795F795E79577
:201F8000739513F420C0B7DF3EDF5F910895D8F7FBCFEA1BFB0B680B51F010F40094BBDF88
:201FA000662392F3EE0FFF1F661F7A95CBF7EE27FF27662777275F910895EFEFFFEF6FE78D
:201FC0007FEF5F910895EFEFFFEF6FE77FE75F9108955F932ADF703851F3903841F30124E9
:201FE0000894791F23F41CF300203AF3ECCF0F921F932F933F934F93112722279927689F6E
:20200000A0018F9F302D410D591F6B9F300D411D591F8E9F27D0BF9F25D06A9F23D0BE9FE1
:202020001DD0AF9F1BD0AE9F110D291F391F491F591FE32FF42F652F522F4F913F912F91D5
:202040001F910F9066232AF0550FEE1FFF1F661F02C073954BF2CDDE5F910895100D211DE0
:20206000391F02C0200D311D491F591F08955F93DCDE703821F411200AF49FCFA4CF90380D
:2020800009F495CF01240894970B1BF4D4F30020F3CF792F1F932F933F934F931124112787
:2020A000222733274427552790E2AE17BF078607410730F0AE1BBF0B860B410B089401C0D7
:2020C0008894551F221F331F111CAA1FBB1F881F441F9A9551F7F901612D4F913F912F9194
:2020E0001F91662332F0550FEE1FFF1F661F7A9543F27FDE5F91089599239AF0772342F031
:20210000971748F029F4AE17BF07860720F031F09894889408959894089408951894889461
:2021200008957723C2F7971798F3A9F7EA17FB07680788F399F3ECCFEA0FFB1F681F791F70
:202140000895AE1BBF0B860B970B0895F195E195F0400895F09560957095E195FF4F6F4FB5
:202160007F4F0895EE230E2EEA2F19F0EE0F0A94E9F70895EE230E2EEA2F19F0E6950A94E5
:20218000E9F7089575956795F795E7950895EE0FFF1F661F771F08956F2F660F660B762F1B
:2021A0000895BA2FBB0FBB0B8B2F9B2F08956E2F6A9FF0016B9FF00D08950024112490E1E3
:2021C000AA0FBB1F001C111C0E1A1F0A18F40E0E1F1E01C0A1609A9599F7FD01D001089580
:2021E0003F934F935F93002411244427552730E2AA0FBB1F881F991F001C111C441F551FD5
:202200000E1A1F0A460B570B28F40E0E1F1E461F571F01C0A1603A9559F7FD01BC01D001FD
:20222000CA015F914F913F91089504D0D9DF0EF491DF0895E89477FF02C08CDF689497FF4A
:202240000BC00024A095B095809590951196801D901D00F8039400FA0895ED91FD916D91BA
:202260007D9108957E936E93FE93EE9308956BBF0790F691E02D0895E881F9816A817B8136
:202280000895A881B9818A819B810895E883F9836A837B830895A883B9838A839B830895DC
:2022A0007A936A93FA93EA930895689401C0E89401D006DE182E862F612D192E972F712D4B
:1622C0001B2EBF2FF12D1A2EAE2FE12D089500240A160B060895F1
:00000001FF
