:0E0000000C94CB010C9400000C9400000C94A6
:10000E0000000C9400000C9400000C9400000C9462
:10001E00F80C0C94230D0C94D40F0C9400000C943B
:10002E00390F0C9400000C9400000C949B0F0C9450
:10003E0000000C9400000C9400000C9400000C9432
:10004E0000000C9400000C9400000C9400000C9422
:10005E0000000C9400000C9400000C9400000C9412
:10006E0000000C944E0D0C9400000C940F060C9492
:10007E0000000C9400000C9400000C9400004F0A39
:10008E004F0A00004F0A00002D084F0A0000400CD6
:10009E0000000000000020060000000000002D08F7
:1000AE0000000000200600000000260500000000F1
:1000BE00E0060000B70700004807E0060000200633
:1000CE004F0A400CC00D0000E90A400C00004F0A18
:1000DE0000002D082D09B707000000002D080000B4
:1000EE000000200600000000260500000000E006CB
:1000FE000000B70700004807E006000020064F0A80
:10010E00400CC00D0000E90A400C00004F0A000030
:10011E002D082D09B707000000001E1E1E1E1E1EF4
:10012E001E1E1E1E1E1E1E1E1E1E1E1E1E1E1E1EE1
:10013E001E1E1E1E1E1E1E1E1E1E232323181E1EC8
:10014E001E1E1E1E1E1E1E1E1E1E1E1E1E1E1E1EC1
:10015E001E1E1E1E1E1E1E1E1E232323181E1E1EA8
:10016E001E1E1E1E1E1E1E1E1027E80364000A0001
:10017E00010000100001100001000000000000004E
:10018E000000000000004B616C69627261736920AF
:10019E0053656E736F720053656C65736169203EB3
:1001AE003E3E3E3E3E3E3E00446968656E74696B5F
:1001BE00616E203E3E3E3E3E004D657261682D48AA
:1001CE00696A61752D4269727500312E5761726EC2
:1001DE0061204D65726168203E3E0054656B616E14
:1001EE0020546F6D626F6C20313C3C00322E576193
:1001FE00726E612048696A6175203E3E00332E574B
:10020E0061726E612042697275203E3E3E00342E50
:10021E005761726E6120486974616D203E3E0048E0
:10022E006974616D50757469682D4D6572616800F1
:10023E00486974616D50757469682D48696A617595
:10024E0000486974616D50757469682D42697275E4
:10025E002000312E5761726E6120507574696820CE
:10026E003E3E00322E5761726E6120486974616D98
:10027E00203E3E004C434420544553542E2E2E2EE9
:10028E002E2E2E2E0031323334353637383930316A
:10029E00323334353600494D552054657374204F32
:1002AE004B203E3E3E3E0057616974203420477914
:1002BE00726F73636F706500494D5520546573748A
:1002CE00204661696C203E3E00436865636B2048A2
:1002DE00617264776172652121004779726F2043E4
:1002EE00616C6C69627261746564004D61676E6504
:1002FE00746F2054657374204F4B2E003C3C3C3C75
:10030E003C3C3C3C3E3E3E3E3E3E3E3E004D6167EA
:10031E0065746F2054657374204661696C004D6F6F
:10032E00646542616C616E63696E67204F4E003C7E
:10033E003C3C3C3C205075746172204B69726900E4
:10034E003E3E3E3E205075746172204B616E616E72
:10035E000042616C616E547261636572204D6F6410
:10036E00650001002D4E414E00494E460000010031
:10037E000200880100000A0004008A01000001004A
:10038E006F09700300000000F894EE27ECBBF1E05B
:10039E00F5BFE5BFE0936C00F8E1F1BDE1BD8DE086
:1003AE00A2E0BB27ED938A95E9F780E090E1A0E00B
:1003BE00B1E0ED930197E9F7ECE7F3E0D0E0DBBFB6
:1003CE0087919791009781F0A791B7910790179019
:1003DE00C791D791BF01DBB7F001CBBF07900D924C
:1003EE000197E1F7FB01EBCFEFEFEDBFE0E1EEBFE1
:1003FE00C0E0D9E00C943B11AA93A881BB271AD078
:10040E005E2E29C6AA93A881BB2714D04E2E23C6D2
:10041E00AA93A881BB270ED07E2E1DC6AA93A881B3
:10042E00BB2708D06E2E17C6AA93A881BB2702D071
:10043E009E2E11C6BA93AA93A881B981E8E00E94B4
:10044E006315DF01E2E1F0E00E947C15EC5E61C510
:10045E00BA93AA93A881B981E8EC0E946315DF01D3
:10046E00E2E1F0E00E947C15EC50FE4F52C5AA93DB
:10047E00A881BB27EDDFFBBDEABDEDC5AA93A88120
:10048E00BB27E6DFF9BDE8BDE6C5AA931A930A932A
:10049E00AA81BB27DDDF8F011093790000937800CE
:1004AE0008C1BA93AA93E881F981AFEFBFEF0E941A
:1004BE006915E883F983AB81AA2372F4EA81FB8183
:1004CE000E942415EF2FF0E0E0938500EA81E1957C
:1004DE00E09384001D9A07C0EB81E0938500EA81CA
:1004EE00E09384001D98A981AA2372F4E881F98112
:1004FE000E942415EF2FF0E0E0938700E881E1954C
:10050E00E09386001A9807C0E981E0938700E8819E
:10051E00E09386001A9A88C5E0E0E0938700E093A6
:10052E008600E0938500E09384000895AA93E88105
:10053E00E07FE460EBBB85E08A95F1F7DA988BC536
:10054E00AA93D898E881E07FEC60EBBB85E08A95B2
:10055E00F1F7DA988BE18A95F1F7E881E295E07F81
:10056E00EC60EBBB85E08A95F1F7DA9880EF9AE0C4
:10057E000197F1F7DA9A6FC5AA93D89AE881E07FCE
:10058E00ED60EBBB85E08A95F1F7DA988BE18A9501
:10059E00F1F7E881E295E07FED60EBBB85E08A95AF
:1005AE00F1F7DA9885ED8A95F1F7DA9A54C5A2E358
:1005BE00B0E00E946213A0E3B9DFA5E0B0E00E94B4
:1005CE006213A0E3B3DFA1E0B0E00E946213A0E3E8
:1005DE00ADDFA1E0B0E00E946213A0E2A7DFA8E2C7
:1005EE00AFDFA0E1ADDFACE0ABDFA6E0A9DF33C04B
:1005FE00AA931A93E981E03019F4AA81A05802C097
:10060E00AA81A0549DDF188156C00E9412160E9426
:10061E00FE156BBFE691E03099F00E94FE156BBFA0
:10062E00A691AADFDE010E94F015EF5FFF4F6F4F1C
:10063E007F4F0E94F515E150F04060407040E7CFCB
:10064E00F3C40E941216E0E0EA93AD81D1DF0E945E
:10065E000316DBDF42C4A1E073DF0895AA931A9359
:10066E00E0E0EA93AA81C4DF10E0103140F4A0E28A
:10067E0083DFA2E3B0E00E9462131F5FF6CF188102
:10068E0048C4AA931A930A93EA81A0E4EA9FF00160
:10069E00E0580E2F1FE0EFEFE1175CF4A12FA00F33
:1006AE004FDFA0E269DFA2E3B0E00E9462131150B7
:1006BE00F2CF19810881239608950E9412161A937B
:1006CE00E0E0EA93AE8194DF10E0103198F4E12F70
:1006DE00A981BA818B819C81FF27662777270E948B
:1006EE0015156BBFA69148DFA2E3B0E00E9462131E
:1006FE001F5FEBCF188120C50E9412161A930A9322
:10070E00EE81A0E4EA9FF001E0580E2F1FE0EFEF1C
:10071E00E117ACF4A12FA00F13DFE12FAA81BB814B
:10072E008C819D810E944A150E9415156BBFA69162
:10073E0023DFA2E3B0E00E9462131150E8CF3EC067
:10074E000E9412161A930A93EE81A0E4EA9FF0011A
:10075E00E0580E2F17E0EFEFE11784F5A12FA00F51
:10076E00EFDEE12FAA81BB818C819D810E944A150B
:10077E000E9415156BBFA691FFDEA2E3B0E00E94AA
:10078E006213E02FE11BE15FAE2FDADEE12FAA81CB
:10079E00BB818C819D810E944A150E941C160E946D
:1007AE001A15E15FFF4F6F4F7F4F6BBFA691E4DECF
:1007BE00A2E3B0E00E9462131150CDCF19810881DF
:1007CE0027960895BA93AA93A981AA2352F4E88191
:1007DE00F981AFEFBFEF0E946915E883F983ADE2AF
:1007EE00CBDEA881B981E8EEF3E00E948F15E05DC3
:1007FE00AE2FC2DEA881B981E8EEF3E00E94C115EA
:10080E00DF01E4E6F0E00E948F15E05DAE2FB4DE6E
:10081E00A881B981E4E6F0E00E94C115DF01EAE0AB
:10082E00F0E00E948F15E05DAE2FA6DEA881B981A3
:10083E00EAE0F0E00E94C115E05DAE2F9DDE69C3D7
:10084E00BA93AA93A981AA2352F4E881F981AFEF52
:10085E00BFEF0E946915E883F983ADE28DDEA881B2
:10086E00B981E4E6F0E00E948F15E05DAE2F84DEE4
:10087E00A881B981E4E6F0E00E94C115DF01EAE04B
:10088E00F0E00E948F15E05DAE2F76DEA881B98173
:10089E00EAE0F0E00E94C115E05DAE2F6DDE39C3D7
:1008AE00AA93A881E4E60E946E15E05DAE2F64DE89
:1008BE00A881E4E60E94BE15AE2FEAE00E946E15F6
:1008CE00E05DAE2F59DEA881EAE00E94BE15E05D24
:1008DE00AE2F52DEC0C3AA931A9310E0183070F4F4
:1008EE00E7E0E11BA1E00E943015A981EA2311F493
:1008FE00A0E301C0A1E340DE1F5FF0CF188109C362
:10090E00E0E0E0937100E8E4E09370000895AA93AC
:10091E001A93E4EAE0937400E0917400E078E1F356
:10092E00E0917100E87F1E2F183011F0103109F49C
:10093E0003C0E1E01881EDC2E981E0937300E4E8C1
:10094E00E0937400E0917400E078E1F3E0917100BF
:10095E00E87F1E2F183111F0103409F403C0E1E0C6
:10096E001881D7C2E0E01881D4C2AA931A93E4EAA0
:10097E00E0937400E0917400E078E1F3E09171008F
:10098E00E87F1E2F183011F0103109F401C0EFCF9F
:10099E00E981E0937300E4E8E0937400E091740061
:1009AE00E078E1F3E0917100E87F1E2F103211F034
:1009BE00183541F4E4E9E0937400E0917400E071BD
:1009CE00E1F7D5CF1881A5C2E4E9E0937400E09178
:1009DE007400E071E1F70895AA931A93E981E09308
:1009EE007300E4E8E0937400E0917400E078E1F3C2
:1009FE00E0917100E87F1E2F183219F0E1E01881A6
:100A0E0088C2E0E0188185C2E4ECE0937400E091C6
:100A1E007400E078E1F307C0E4E8E0937400E0913D
:100A2E007400E078E1F3E09173000895E0E0E3BF35
:100A3E00C498E0BF0895BA93AA93A881B981AD373F
:100A4E00E0E0BE0720F0A131E7E2BE0708F060C08B
:100A5E00A881B981A03DE7E0BE0778F0EAE1E3BFE7
:100A6E00E0E0E2BFE881F98166277727A0E2B1EAEC
:100A7E0087E090E00E94B915E1BFA881B981A83E38
:100A8E00E3E0BE0778F0EBE1E3BFE0E0E2BFE88130
:100A9E00F98166277727A0E9B0ED83E090E00E9408
:100AAE00B91534C0A881B981A43FE1E0BE0778F042
:100ABE00ECE1E3BFE0E0E2BFE881F981662777274A
:100ACE00A8E4B8EE81E090E00E94B9151FC0A8819D
:100ADE00B981AA3FE0E0BE0778F0EDE1E3BFE0E0C8
:100AEE00E2BFE881F98166277727ACEAB7E081E0BB
:100AFE0090E00E94B9150AC0EEE1E3BFE0E0E2BF6C
:100B0E00E881F981A6EDB3E80E947C15E1BF01C032
:100B1E008DDFFFC1BA93AA93AA81BB818CDFA88116
:100B2E00B9810E94621382DF7FC2E8EEF3E0FA938E
:100B3E00EA93A4E6B0E0EEDFE4EFF1E0FA93EA9395
:100B4E00A4E1B0E0E7DFE8EBFBE0FA93EA93A2E37F
:100B5E0040C0E8EBFBE0FA93EA93A4E6B0E0DADFFC
:100B6E00E4EFF1E0FA93EA93A4E1B0E0D3DFE4EC32
:100B7E00F9E0FA93EA93A6E9B0E0CCDFE4EFF1E016
:100B8E00FA93EA93A4E1B0E0C5DFE8EEF3E0FA935E
:100B9E00EA93A2E3B0E0BEDFE4EFF1E0FA93EA936A
:100BAE00A4E1B0E0B7DFE8EBFBE02CC0E8EBFBE044
:100BBE00FA93EA93A2E3B0E0ADDFE4EFF1E0FA934B
:100BCE00EA93A4E1B0E0A6DFE8EEF3E0FA93EA934D
:100BDE00A6E9B0E09FDFE4EFF1E0FA93EA93A4E137
:100BEE00B0E098DFE8EBFBE0FA93EA93A4E6B0E01E
:100BFE0091DFE4EFF1E0FA93EA93A4E1B0E08ADF4B
:100C0E00E0EDF7E0FA93EA93A2E3B0E083DF089514
:100C1E00AA93EA93FA93EFB7EA932297E0919B0097
:100C2E00E983E0919C00E883E981EC71E9F4E091BD
:100C3E003B09F0E0E55DF64FA881A083A0913B094A
:100C4E00AF5FA0933B09A03119F4E0E0E0933B09BC
:100C5E00A0913D09AF5FA0933D09A03129F4E0E0DA
:100C6E00E0933D09689424F82296E991EFBFF9913B
:100C7E00E991A9911895BA93AA930E942D16E8941A
:100C8E0021F800E010E0EC81FD810E171F0738F50A
:100C9E00E0913D09E030E9F0689421F8E0913C09DB
:100CAE00F0E0E55DF64F3081A0913C09AF5FA09377
:100CBE003C09A03119F4E0E0E0933C09F894E0918E
:100CCE003D09E150E0933D097894E32F0E943216DE
:100CDE0033C285E08A95F1F70F5F1F4FD4CFE0E066
:100CEE000E94321629C2AA93E0919B00E072E1F3B2
:100CFE00E881E0939C00AFC1AA93E981A881EA2B19
:100D0E00AE2FF1DF06C1AA931A9310E0153620F428
:100D1E009B9910E01F5FFACF9B9908C0EA81A981C9
:100D2E00EA2BAE2FE0DFE1E0188159C6A0E0DBDF51
:100D3E00E0E0188154C6A1E003DCE0E0EA93A4E908
:100D4E00B1E080E090E07DDCE1E0EA93A5EAB1E07D
:100D5E0080E090E00FC0A1E0F3DBE0E0EA93A4E9CD
:100D6E00B1E080E090E06DDCE1E0EA93A6EBB1E06B
:100D7E0080E090E0A2DC0895AA93A1E0E1DBE0E040
:100D8E00EA93A4E9B1E080E090E05BDCA881A03CAE
:100D9E0041F4E1E0EA93ADE2B2E080E090E051DCB4
:100DAE0019C0A881A03A41F4E1E0EA93AEE3B2E0C3
:100DBE0080E090E046DC0EC0A881A03941F4E1E06D
:100DCE00EA93AFE4B2E080E090E03BDC03C0C3DF27
:100DDE00E0E09FC0E8EBFBE0FA93EA93A4EFB1E00A
:100DEE0099DEA8EEB3E00E946213A1E0A9DBE981CF
:100DFE00A881EA2BAE2F77DFE0E0EA93A0E6B2E01F
:100E0E0080E090E05ADCE1E0EA93A9EEB1E080E008
:100E1E0090E072DCE981EA93A98175DFE03039F167
:100E2E00E8EBFBE0FA93EA93A8ECB0E073DEA0E007
:100E3E0028DCE0E0EA93A1E7B2E080E090E03DDC60
:100E4E00E981EA93A9815FDFE03089F0E8EBFBE00E
:100E5E00FA93EA93A8ECB0E05DDEA8E8B3E10BDF0D
:100E6E00AE2FE881EA1719F466DFE1E052C073DFB6
:100E7E00E0E04FC0BA93AA931A93AB81A13060F110
:100E8E00A0ED45DDAC81A8DD8BE18A95F1F7A1EDF2
:100E9E003EDDEB81E150EB831B811030E4F010302E
:100EAE0061F4E12FA981BA81F0E0EA0FFB1FFF93F5
:100EBE00EF93B2DDAF91BF910BC0E12FA981BA8143
:100ECE00F0E0EA0FFB1FFF93EF939EDDAF91BF9112
:100EDE00EC931150E2CF78DD188125960895BA93E0
:100EEE00AA93A0ED14DDAA8177DD8BE18A95F1F747
:100EFE00A1ED0DDD91DDA881B981EC9365DDE1E019
:100F0E006EC5AA93A0ED03DDA98166DDA88164DD1F
:100F1E005BDD22960895BA93AA931A9310E0AB81E3
:100F2E00A13040F12197EE81EA93DE011196D7DFD1
:100F3E001E2FE030F1F02197ED81A1E00E943015D7
:100F4E00E1500E2EAD81EE81EA1BEF5FA02D0E94C7
:100F5E003015E883A981EA23E983AD81EE81EA1B8E
:100F6E00EF5FA9810E943815E983AB81BC81EC93B8
:100F7E0021962196E12F1881DFC0AA93A981A13075
:100F8E00A0F12197E0E0E883EC81EA93DE0111966F
:100F9E00A6DFE03049F12197EB81A1E00E943015E8
:100FAE00E1500E2EAB81EC81EA1BEF5FA02D0E946B
:100FBE003015E883AB81EC81EA1BEF5FAA810E94BA
:100FCE003015EA83E881AA81EA23EA83E881E09575
:100FDE00A981EA23E983EA81A981EA2BE983ED81DC
:100FEE00EA93AA818EDF219621961EC0AA931A93A8
:100FFE00EB81EA93ADB7BEB71F9371DF1F91A98145
:10100E00A03031F0EA81A1E00E943015E12B06C03C
:10101E00EA81A1E00E943015E095E1231E2FEB81BD
:10102E00EA93A12F6EDF188124960895EBE6EA93DA
:10103E00E6E0EA93A0E049C02197E5E7EA93E6E00F
:10104E00EA93EA93DE01139666DFA881A43311F4C6
:10105E00E1E001C0E0E021960895A2E3B0E00E9435
:10106E006213E4DFAAE0B0E00E946213EBE6EA93BB
:10107E00E2E0EA93E3E0EA93A1E07FDFEAE1EA93BC
:10108E00E2E0EA93E3E0EA93A3E077DFE9E1EA93B3
:10109E00A9E037DFEBE1EA93E4E0EA93E2E0EA93DA
:1010AE00A2E06BDFECE1EA93E4E0EA93E2E0EA939C
:1010BE00A0E063DFEAE6EA93E5E0EA93A0E096DFDC
:1010CE00E7E3EA93E1E0EA93A1E090DF0895269743
:1010DE00EBE3EA93E6E0EA93DE011296CBDEEC81D7
:1010EE00FD81E0930309F0930409EA81FB81E0930B
:1010FE000509F0930609E881F981E0930709F09359
:10110E0008091AC02697E3E4EA93E6E0EA93DE01C3
:10111E001296B0DEEC81FD81E0930909F0930A0985
:10112E00EA81FB81E0930B09F0930C09E881F981C8
:10113E00E0930D09F0930E09269608950E9412165B
:10114E002C97EC85FD856E857F85A0E0B0E080E074
:10115E009FE30E946214E887F9876A877B87EC8594
:10116E00FD856E857F85EC83FD836E837F830E9474
:10117E0008160E944015AFEDB9E587E39FE50E9482
:10118E001F150E940D160E94FE15EC83FD836E83C3
:10119E007F83A885B9858A859B850E946214AC8160
:1011AE00BD818E819F810E946214A0E0B0E080EC30
:1011BE009FE30E941C160E940B14AC81BD818E8190
:1011CE009F810E946214EC83FD836E837F83CAC26B
:1011DE006097E0914E09F0914F096091500970911E
:1011EE005109AAE0B7ED83EA9BE30E946214EC83F7
:1011FE00FD836E837F83A0914A09B0914B09809144
:10120E004C0990914D090E940B14A0914609B09182
:10121E00470980914809909149090E940B14AFE645
:10122E00B2E183E89AE30E941214AAE0B7ED83EAD2
:10123E009BE30E946214A0914209B09143098091F0
:10124E004409909145090E941214E0934209F093CB
:10125E0043096093440970934509AC81BD818E8129
:10126E009F81E0914609F09147096091480970917C
:10127E0049090E940B14E0934609F09347096093C5
:10128E00480970934909AC81BD818E819F81E0919F
:10129E004A09F0914B0960914C0970914D090E94D9
:1012AE000B14E0934A09F0934B0960934C09709329
:1012BE004D09E0914E09F0914F09609150097091DE
:1012CE005109A2E8B8EA8BE797E30E941214E09363
:1012DE004E09F0934F096093500970935109E091B4
:1012EE004209F09143096091440970914509AFE8B4
:1012FE00B2EC85EF9CE30E941214A0E0B0E080E80F
:10130E009FE30E94B014EC83FD836E837F83A091D4
:10131E004209B091430980914409909145090E9478
:10132E006214EC87FD876E877F87EC81FD816E816D
:10133E007F81A0914A09B0914B0980914C099091FF
:10134E004D090E946214E887F9876A877B87E091CE
:10135E000B09F0910C090E9450150E94D813A09110
:10136E001309B091140980911509909116090E94E4
:10137E000B14AAE0B8ED8FE199E30E946214A091DC
:10138E001F09B091200980912109909122090E9494
:10139E001214E0931F09F0932009609321097093B2
:1013AE002209A0910309B09104090E94291614F094
:1013BE000C94330AE0910709F09108090E94501528
:1013CE000E94D8137F936F93FF93EF93E0910309DD
:1013DE00F09104090E9450150E94D813DF01CB0131
:1013EE00E0910309F09104090E9450150E94D81350
:1013FE000E9462147F936F93FF93EF93E091050920
:10140E00F09106090E9450150E94D813DF01CB01FE
:10141E00E0910509F09106090E9450150E94D8131B
:10142E000E946214AF91BF918F919F910E941214EE
:10143E00DF01CB0183DEAF91BF918F919F910E940F
:10144E006214DF01CB010E944E13A1EEBEE285E6CF
:10145E0092E40E946214BAC0A0910709B0910809E3
:10146E000E94291614F00C94920AE0910309F0914F
:10147E0004090E9450150E94D8137F936F93FF9317
:10148E00EF93E0910709F09108090E9450150E9410
:10149E00D813DF01CB01E0910709F09108090E94F2
:1014AE0050150E94D8130E9462147F936F93FF937E
:1014BE00EF93E0910509F09106090E9450150E94E4
:1014CE00D813DF01CB01E0910509F09106090E94C6
:1014DE0050150E94D8130E946214AF91BF918F9144
:1014EE009F910E941214DF01CB0128DEAF91BF91B4
:1014FE008F919F910E946214DF01CB010E944E13C7
:10150E00A1EEBEE285E692E40E946214A0E0B0E095
:10151E0084EB92E457C0E0910309F09104090E9414
:10152E0050150E94D8137F936F93FF93EF93E09122
:10153E000709F09108090E9450150E94D813DF0187
:10154E00CB01E0910709F09108090E9450150E9405
:10155E00D8130E9462147F936F93FF93EF93E091E1
:10156E000509F09106090E9450150E94D813DF015B
:10157E00CB01E0910509F09106090E9450150E94D9
:10158E00D8130E946214AF91BF918F919F910E94C8
:10159E001214DF01CB01D2DDAF91BF918F919F91DC
:1015AE000E946214DF01CB010E944E13A1EEBEE237
:1015BE0085E692E40E946214DF01CB01E0E0F0E0E8
:1015CE0064EB72E40E941C160E940B140E94081613
:1015DE00A0911F09B09120098091210990912209B3
:1015EE000E940B14EC83FD836E837F83AC85BD85D7
:1015FE008E859F850E946214A0911F09B0912009CB
:10160E0080912109909122090E941214E0931F09E2
:10161E00F09320096093210970932209EC81FD81DA
:10162E006E817F81A885B9858A859B850E9462140B
:10163E00A0911309B0911409809115099091160982
:10164E000E941214E0931309F09314096093150984
:10165E0070931609E0914209F09143096091440993
:10166E0070914509AC85BD858E859F850E9462145B
:10167E00A0914209B0914309809144099091450986
:10168E000E941C160E940B14E0934209F09343092A
:10169E006093440970934509E0914609F09147091A
:1016AE006091480970914909AC85BD858E859F85ED
:1016BE000E946214A0914609B09147098091480991
:1016CE00909149090E941C160E940B14E093460942
:1016DE00F09347096093480970934909E0914209D4
:1016EE00F09143096091440970914509A885B98527
:1016FE008A859B850E946214A0914A09B0914B097C
:10170E0080914C0990914D090E941C160E940B1459
:10171E00E0934A09F0934B0960934C0970934D097D
:10172E00E0914609F0914709609148097091490985
:10173E00A885B9858A859B850E946214A0914E0961
:10174E00B0914F0980915009909151090E941C1639
:10175E000E940B14E0934E09F0934F0960935009C9
:10176E007093510960960895E0910909F0910A0964
:10177E000E9450150E94D813A0910F09B091100924
:10178E0080911109909112090E940B14AAE0B8EDF4
:10179E008FE199E30E946214A0912309B09124096C
:1017AE0080912509909126090E941214E093230935
:1017BE00F0932409609325097093260908951A93CE
:1017CE00E0E0E0930F09E0931009E0931109E09334
:1017DE001209E0931309E0931409E0931509E093BD
:1017EE001609E0931709E0931809E0931909E0939D
:1017FE001A0910E0143610F00C945A0C83DCE091A8
:10180E000909F0910A09A0910F09B0911009809170
:10181E001109909112090E9450150E94D8130E942E
:10182E001214E0930F09F09310096093110970934D
:10183E001209E0910B09F0910C09A0911309B091D6
:10184E00140980911509909116090E9450150E9455
:10185E00D8130E941214E0931309F09314096093A5
:10186E00150970931609E0910D09F0910E09A091DA
:10187E001709B09118098091190990911A090E94BF
:10188E0050150E94D8130E941214E0931709F0937A
:10189E0018096093190970931A09A1E0B0E00E942B
:1018AE0062131F5FA7CFA0910F09B091100980910D
:1018BE00110990911209EAE0F7ED63E27CE30E94D0
:1018CE006214E0930F09F09310096093110970935D
:1018DE001209A0911309B0911409809115099091E4
:1018EE001609EAE0F7ED63E27CE30E946214E093EE
:1018FE001309F09314096093150970931609A091BA
:10190E001709B09118098091190990911A09EAE006
:10191E00F7ED63E27CE30E946214E0931709F09303
:10192E0018096093190970931A0933C01A9310E0BD
:10193E00E0E0E0935209E0935309E0935409E093F9
:10194E00550911E0EFE1F5E86BE67FE3E09352090C
:10195E00F09353096093540970935509E12FE29562
:10196E00E07FEE0F1E2FACE30E94BC04A1E00E94AC
:10197E00F304A12F0E94F3040E94EB04ACE30E9437
:10198E00BC04A2E00E94F304A0E00E94F3040E94B3
:10199E00EB04199108952397ACE30E94BC04AAE0CE
:1019AE000E94F3040E94EB04ADE30E94BC040E946B
:1019BE000B05E8830E940B05E9830E941305EA8359
:1019CE000E94EB04A881A83431F4A981A43319F440
:1019DE00AA81A33309F002C0E1E001C0E0E0239642
:1019EE000895EA93FA93EFB7EA930E9B0EC0B09B5D
:1019FE0006C0F894F50131965F01789405C0F8940D
:101A0E00F50131975F0178940DC0B09B06C0F89434
:101A1E00F50131975F01789405C0F894F501319680
:101A2E005F017894E0912909EF5FE0932909E9912C
:101A3E00EFBFF991E9911895EA93FA93EFB7EA930C
:101A4E000F9B0EC0B29B06C0F894F60131976F0142
:101A5E00789405C0F894F60131966F0178940DC014
:101A6E00B29B06C0F894F60131966F01789405C0CA
:101A7E00F894F60131976F017894E0912A09EF5F9F
:101A8E00E0932A09E991EFBFF991E9911895AA938C
:101A9E00BA93EA93FA93EFB7EA93A7E5B9E0ED911B
:101AAE00FD913196FE93EE93E135A0E0FA07D0F466
:101ABE00A09157094A1609F49498A09157097A16DD
:101ACE0009F49598A09157096A1609F49698A09171
:101ADE0057099A1609F49798A09157095A1609F4BE
:101AEE00C39812C0A0915709B0915809A132E3E0F2
:101AFE00BE0750F0E0E0E0935709E0935809949A3E
:101B0E00959A969A979AC39AE991EFBFF991E991AE
:101B1E00B991A99118956497A0916509B09166093C
:101B2E00F501EA1BFB0B0F01A0916709B091680943
:101B3E00F601EA1BFB0BE00DF11D0E9450150E94F1
:101B4E00D813A0E0B0E080E09FE30E946214A09161
:101B5E0000090E9455150E9419160E941C160E941B
:101B6E000B140E940816A0926509B0926609C092E5
:101B7E006709D09268090E940316EDECFCEC6CEC40
:101B8E007DE30E946214A0915909B0915A09809187
:101B9E005B0990915C090E941214E0935909F0932D
:101BAE005A0960935B0970935C090E94A1133497E4
:101BBE002CF0E0E0F0E060E470E412C0E09159092E
:101BCE00F0915A0960915B0970915C090E94A11312
:101BDE00ED3FAFEFFA0764F4E0E0F0E060E470ECA4
:101BEE00E0935909F0935A0960935B0970935C096D
:101BFE000E940316EDECFCEC6CE47EE30E94621492
:101C0E00A0E0B0E080E091E40E941214A091590986
:101C1E00B0915A0980915B0990915C090E9412144F
:101C2E00E88BF98B6A8B7B8BE0911F09F091200971
:101C3E0060912109709122090E94A113ED3224F4C2
:101C4E00AE2FE3EDEA170CF0FAC0A889B9898A899C
:101C5E009B89E0911F09F0912009609121097091F3
:101C6E0022090E940B14EC87FD876E877F87AC8557
:101C7E00BD858E859F85E3E3F3E363EB7EE30E94F0
:101C8E006214A0916109B0916209809163099091EB
:101C9E0064090E941214E0936109F0936209609343
:101CAE00630970936409EC85FD856E857F85E093ED
:101CBE005D09F0935E0960935F0970936009A091CE
:101CCE006109B09162098091630990916409E0E025
:101CDE00F0E068EC72E40E94F51409F010F40C9434
:101CEE00790E0FC0A0916109B091620980916309CC
:101CFE0090916409E0E0F0E068EC72EC0E94F5145B
:101D0E0040F4E0936109F093620960936309709364
:101D1E006409E0910B09F0910C090E9450150E9484
:101D2E00D813A0911309B0911409809115099091BF
:101D3E0016090E940B14E887F9876A877B87E09162
:101D4E005D09F0915E0960915F0970916009AC8543
:101D5E00BD858E859F850E941214A0E0B0E080ECB8
:101D6E0090E40E9462147F936F93FF93EF93A88584
:101D7E00B9858A859B85EAE0F7ED63EA7CE30E94EC
:101D8E006214AF91BF918F919F910E9412147F9315
:101D9E006F93FF93EF93E0916109F0916209609167
:101DAE00630970916409A0E0B0E080E890E40E94BD
:101DBE006214AF91BF918F919F910E941214EC8388
:101DCE00FD836E837F83AC81BD818E819F81E0E038
:101DDE00F0E068EC73E40E94F51409F010F40C9432
:101DEE00F90E0BC0AC81BD818E819F81E0E0F0E0E9
:101DFE0068EC73EC0E94F51420F4EC83FD836E8383
:101E0E007F83EC81FD816E817F810E94A113DF01B2
:101E1E00E0910109F0910209AE1BBF0BBA93AA9390
:101E2E00EE81FF81688579850E94A113A091010939
:101E3E00B0910209AE0FBF1F0E94580211C0E0E020
:101E4E00F0E0FA93EA93A0E0B0E00E945802E0E0DE
:101E5E00E0936109E0936209E0936309E0936409FA
:101E6E00649608950A921A92FA926A937A938A93D2
:101E7E009A93AA93BA93EA93FA93EBB7EA93EFB7CE
:101E8E00EA937894A0916909AF5FA0936909A53090
:101E9E0030F0E0E0E0936909EAEAEFBD05C0E2E068
:101EAE00EFBDC598C698C79820FE2EC0A0916B09AD
:101EBE00AF5FA0936B09E0916A09FF27662777272A
:101ECE00E85DFE4F6F4F6BBFE691AE17E8F0E0E0B6
:101EDE00E0936B09E0916A09ACE8B0E080E0FF277F
:101EEE00662777270E9445150E9415150E94FA1540
:101EFE000E942205A0916A09AF5FA0936A09AE34D1
:101F0E0018F0E0E0E0936A09E991EFBFE991EBBFC9
:101F1E00F991E991B991A9919991899179916991E3
:101F2E00F9901990099018950A921A92FA926A935A
:101F3E007A938A939A93AA93BA93EA93FA93EBB706
:101F4E00EA93EFB7EA931A93789423FE15C0182DEF
:101F5E000E946E080E9489080E94EF080E94BB0B27
:101F6E00DADD181518F4E82DE11B04C0EFEFE11BC4
:101F7E00E80DEF5FE09356091991E991EFBFE991F2
:101F8E00EBBFF991E991B991A991999189917991C3
:101F9E006991F990199009901895AA93EA93EFB761
:101FAE00EA9383947894A0916E09AF5FA0936E0923
:101FBE00A430D9F4E0916C09A0912909EA1730F404
:101FCE00A0916C09E0912909EA1B08C0A0916C0947
:101FDE00EFEFEA1BA0912909EA0FEF5FE0932709C3
:101FEE00E0912909E0936C0928C0A0916E09A530F3
:101FFE0021F1A930D9F4E0916D09A0912A09EA17CF
:10200E0030F4A0916D09E0912A09EA1B08C0A09155
:10201E006D09EFEFEA1BA0912A09EA0FEF5FE0933B
:10202E002809E0912A09E0936D0907C0A0916E0975
:10203E00AA3018F0E0E0E0936E09E991EFBFE99164
:10204E00A9911895E0E0EBBBEFEFEABBE5E0E8BB4A
:10205E00E8EFE7BBEFEFE5BBE0EFE4BBE0E0E2BBB0
:10206E00E0EFE1BBE0ECE3B9ECE3E2B9E0E0E093F2
:10207E006200E0936100E7E1E0936500E0E0E09349
:10208E006400E0BFE3BFE2BFE1BFEAEAEFBDE2E119
:10209E00EEBDE0E0EDBDECBDE7E2E7BDE0E1E6BDA3
:1020AE00E3E1E7BDE8E8E6BDE0E0EBBDEABDE9BD92
:1020BE00E8BDE0937900E0937800EBE0E5BDE0E069
:1020CE00E4BDEAEFE3BDE2EFE0938B00E1E1E093E4
:1020DE008A00E0E0E0938900E0938800E1E0E0937D
:1020EE008100E0E9E0938000E0E0E0938700E09378
:1020FE008600E0938500E0938400E0938300E8EC93
:10210E00E0938200E0E0E0936A00E0E5EABFE0ECF5
:10211E00E9BFE8BFE4EAE7BFE2E0E0937D00E0E07C
:10212E00E0939B00E8E9E0939A00E6E0E0939D00DF
:10213E00E0E0E0939800E7E6E0939900E0E8E8B984
:10214E00E0E0E0BD0E94DE020E949302AAE50E943A
:10215E000902AAE50E940F02AAE50E941502AAE54D
:10216E000E941B02AAE50E940302AAE50E943E02FB
:10217E00AAE50E944502AAE50E944C02F894E0E00E
:10218E00EA93A2E8B2E080E090E00E946403E1E00E
:10219E00EA93A3E9B2E080E090E00E9464030E941B
:1021AE008704A4E6B0E00E9462130E94340868948B
:1021BE0022F80E942308E03099F0E0E0EA93A4EAC6
:1021CE00B2E080E090E00E946403E1E0EA93A5EBC8
:1021DE00B2E080E090E00E9464030E949C0512C071
:1021EE00E0E0EA93A6ECB2E080E090E00E946403A7
:1021FE00E1E0EA93A7EDB2E080E090E00E94640394
:10220E000E94B005A0E2B3E00E9462130E94E60BAA
:10221E00E1E0EA93A8EEB2E080E090E00E942803AD
:10222E000E94DD050E949D0C0E94D20CE03039F018
:10223E00E0E0EA93A9EFB2E080E090E006C0E0E0D3
:10224E00EA93ABE1B3E080E090E00E946403E1E04A
:10225E00EA93AAE0B3E080E090E00E94A7030E9418
:10226E009C057894789408952197ECDEE0E0F0E0F8
:10227E00FA93EA93A0E0B0E00E945802E89423F8A3
:10228E00A4EFB1E00E946213989905C0E0E0EA93D2
:10229E00A0EC0E94C3060E9432039B9B18C0E0E094
:1022AE00EA93A0E00E94FF02E0E0EA93A0E40E941D
:1022BE008306A8E8B3E10E944206E03439F4A8E8A8
:1022CE00B3E10E944206AE2F0E947204E6CF0E9436
:1022DE0032039A9B44C0E0E0EA93A0E00E94FF0222
:1022EE00D5010E94E903A0E20E94C302E6E0EA9350
:1022FE00A0E00E94FF02D6010E94E903A0E20E9424
:10230E00C302E0E0EA93A1E00E94FF02A091270938
:10231E000E945704E4E0EA93A1E00E94FF02A0911C
:10232E0028090E945704E8E0EA93A1E00E94FF0208
:10233E00A09156090E945704EDE0EA93A1E00E9495
:10234E00FF02E0916300E770AE2FE0916300E07151
:10235E00E695EA2BF0E0DF010E942704BACF0E9437
:10236E003203E0E0EA93ACE2B3E080E090E00E945A
:10237E002803689423F820F8999B81C0A1E00E945D
:10238E003503999B08C0E1E0EA93ADE3B3E080E04A
:10239E0090E00E94830300E010E00A30E0E01E07A8
:1023AE0094F4999B10C0E0E0E0930009E8E8FFEF99
:1023BE00E0930109F0930209A4E6B0E00E946213D3
:1023CE000F5F1F4FEACF999B03C0E0E0E093000937
:1023DE00E0EBFFEFE0930109F0930209A4E6B0E011
:1023EE000E946213999B03C0E0E0E0930009E4E1D0
:1023FE00F0E0E0930109F0930209999B03C0A1E07C
:10240E000E944803999B08C0E1E0EA93AEE4B3E072
:10241E0080E090E00E94640300E010E00A30E0E00B
:10242E001E0794F4999B10C0E0E0E0930009E8E7E2
:10243E00F0E0E0930109F0930209A4E6B0E00E94F7
:10244E0062130F5F1F4FEACF999B03C0E0E0E0934A
:10245E000009E0E5F0E0E0930109F0930209A4E63B
:10246E00B0E00E946213999B03C0E0E0E093000984
:10247E00ECEEFFEFE0930109F09302097DCF0E948D
:10248E003203E0E0EA93AFE5B3E080E090E00E9433
:10249E002803689423F8EBEFE0930009E8E2F0E0FC
:1024AE00E0930109F0930209989B5FC0E0E0EA9384
:1024BE00A0E40E948306A8E8B3E10E944206E0343D
:1024CE0011F00C94BB12E0E0EA93A1E00E94FF022F
:1024DE00A8E8B3E10E944206E883A8810E94720434
:1024EE00E881EF3731F4EFEFE0930009EEECFFEF08
:1024FE0037C0EF3B31F4EFEFE0930009E2EEFFEF70
:10250E002FC0EF3D31F4EDEFE0930009ECEEFFEF5D
:10251E0027C0EF3E31F4EDEFE0930009E6EFFFEF59
:10252E001FC0E73F31F4EDEFE0930009EAE0F0E081
:10253E0017C0EB3F31F4EDEFE0930009E4E1F0E07A
:10254E000FC0ED3F31F4EFEFE0930009EEE1F0E064
:10255E0007C0EE3F49F4EFEFE0930009E2E3F0E04D
:10256E00E0930109F09302099FCF2196FFCF0E94BD
:10257E0012162497EC81FD816E817F81AC81BD8125
:10258E008E819F810E9462140E940816A5E6B0ED0E
:10259E008BEC90E40E946214AEE4BFE88AE491E40E
:1025AE000E941214AC81BD818E819F810E946214A3
:1025BE007F936F93FF93EF930E94FE15A0E0BDE60D
:1025CE0089E291E40E9412140E9403160E94621482
:1025DE00AEE4BFE88AE491E40E941214AF91BF9179
:1025EE008F919F910E94B014289608950E94121602
:1025FE000E940316EDECF3E164ED7EE30E94F51408
:10260E0010F4B5DF56C00E940316EAE7F2E86AE15D
:10261E0070E40E94F51409F010F40C942A130E9431
:10262E00FE15A0E0B0E080E89FE30E94B014DF0149
:10263E00CB019DDFABEDBFE089EC9FE30E941C1642
:10264E000E940B1436C00E94FE15A0E0B0E080E898
:10265E009FE30E940B147F936F93FF93EF930E945F
:10266E00FE15A0E0B0E080E89FE30E941214AF9147
:10267E00BF918F919F910E94B014DF01CB0177DF44
:10268E00ABEDBFE089E49FE30E94121412C00E94DA
:10269E001216AB81AA2322F00E940316A7DF09C0EF
:1026AE000E94FE150E946C13DF01CB019FDF0E947A
:1026BE006C1324960895109639F080EA9FE00197E6
:1026CE00F1F7A8951197C9F70895309760407040BB
:1026DE0009F070580895552342F4503811F4E0FF74
:1026EE0004C03196691F791F6BF050E8572711F41B
:1026FE005F93CFC05F3F31F0660F000C5795679523
:10270E00752F08955F9300200AF0CFC0C8C050E81F
:10271E00192E1522880F991F9527550F879550E86A
:10272E00072E0522660F771F7527550F679508959B
:10273E00689401C0E8945F93F2DF703818F07F3F21
:10274E0008F4A7C056E1571BAAF4519558300EF461
:10275E00593030F0EFEFFFEF6FEF7FE777F91AC0E8
:10276E0077275523B9F0EE0FFF1F661F771F5A9577
:10277E00D1F710C07727583028F0EF2FF62F672F9C
:10278E005850F9CF552331F076956795F795E79523
:10279E005A95D1F700200AF454D15F9108956894A8
:1027AE0001C0E894309760407040B1F0002426F0EC
:1027BE00772312F4009445D1172E7EE1112032F0CA
:1027CE007A95EE0FFF1F661F111CF9CFEF2FF62F14
:1027DE00612D5F938ADF5F9108954F93AF01FD01E5
:1027EE00DA01AB01BC01CA01402D012C142E4F9110
:1027FE000895EA0FFB1F681F0895E095F095609508
:10280E00EF5FFF4F6F4F08955F9381DF903871F147
:10281E0050E8152604C05F937ADF903839F170388E
:10282E0021F1572F591B2BF112F4D7DFFACF583164
:10283E0018F0AA27BB278827583028F0AB2FB82FBF
:10284E0088275850F9CF552329F08695B795A79527
:10285E005A95D9F7502D512572F0CBDF38F4679584
:10286E00F795E795739513F420C0B7DF3EDF5F91C0
:10287E000895D8F7FBCFEA1BFB0B680B51F010F451
:10288E000094BBDF662392F3EE0FFF1F661F7A954F
:10289E00CBF7EE27FF27662777275F910895EFEF97
:1028AE00FFEF6FE77FEF5F910895EFEFFFEF6FE7B9
:1028BE007FE75F9108955F932ADF703851F3903868
:1028CE0041F301240894791F23F41CF300203AF3FA
:1028DE00ECCF0F921F932F933F934F9311272227E5
:1028EE009927689FA0018F9F302D410D591F6B9F17
:1028FE00300D411D591F8E9F27D0BF9F25D06A9F37
:10290E0023D0BE9F1DD0AF9F1BD0AE9F110D291F90
:10291E00391F491F591FE32FF42F652F522F4F9147
:10292E003F912F911F910F9066232AF0550FEE1FA6
:10293E00FF1F661F02C073954BF2CDDE5F910895A7
:10294E00100D211D391F02C0200D311D491F591FA9
:10295E0008955F93DCDE703821F411200AF49FCFC6
:10296E00A4CF903809F495CF01240894970B1BF44B
:10297E00D4F30020F3CF792F1F932F933F934F93D0
:10298E0011241127222733274427552790E2AE170B
:10299E00BF078607410730F0AE1BBF0B860B410BFE
:1029AE00089401C08894551F221F331F111CAA1FA3
:1029BE00BB1F881F441F9A9551F7F901612D4F9146
:1029CE003F912F911F91662332F0550FEE1FFF1F7F
:1029DE00661F7A9543F27FDE5F91089599239AF0F0
:1029EE00772342F0971748F029F4AE17BF078607F2
:1029FE0020F031F09894889408959894089408954E
:102A0E001894889408957723C2F7971798F3A9F727
:102A1E00EA17FB07680788F399F3ECCFEA0FFB1F61
:102A2E00681F791F0895EA1BFB0B680B790B08953D
:102A3E00AE1BBF0B860B970B0895F195E195F040F9
:102A4E000895F09560957095E195FF4F6F4F7F4F0C
:102A5E000895EE230E2EEA2F19F0EE0F0A94E9F7E1
:102A6E000895EE230E2EEA2F19F0E6950A94E9F753
:102A7E00089575956795F795E7950895EE0FFF1FE5
:102A8E00661F771F0895FE2FFF0FFF0B6F2F7F2FEF
:102A9E0008956F2F660F660B762F0895BA2FBB0F12
:102AAE00BB0B8B2F9B2F0895FA9FF02DEB9FF00DF4
:102ABE00EA9FE02DF10D08956E2F6A9FF0016B9F36
:102ACE00F00D089565D0F0DF0EF4B7DF0895002401
:102ADE0098E0AA0F001C0E1A10F40E0E01C0A16091
:102AEE009A95B9F7EA2FA02D08950024112490E1AC
:102AFE00AA0FBB1F001C111C0E1A1F0A18F40E0E73
:102B0E001F1E01C0A1609A9599F7FD01D00108958D
:102B1E003FD0EBDF0EF491DF08953F934F935F9319
:102B2E00002411244427552730E2AA0FBB1F881F0B
:102B3E00991F001C111C441F551F0E1A1F0A460B0D
:102B4E00570B28F40E0E1F1E461F571F01C0A16003
:102B5E003A9559F7FD01BC01D001CA015F914F9121
:102B6E003F91089523D0D9DF0EF46BDF0895AFDFC8
:102B7E00EA2F0895E894B7FF04C0A095B09511967A
:102B8E006894F7FD5ADFB1DFFD010EF456DF0895AC
:102B9E00E894F7FF02C051DF6894B7FF06C0A09516
:102BAE00B095119600F8039400FA0895E89477FF13
:102BBE0002C047DF689497FF0BC00024A095B09524
:102BCE00809590951196801D901D00F8039400FA43
:102BDE000895ED91FD916D917D9108957E936E9383
:102BEE00FE93EE9308956BBFA791B6910895E88179
:102BFE00F9816A817B810895A881B9818A819B813F
:102C0E000895E883F9836A837B830895A883B98343
:102C1E008A839B8308959A938A93BA93AA9308956D
:102C2E00689401C0E89401D0BDDD182E862F612D69
:102C3E00192E972F712D1B2EBF2FF12D1A2EAE2F61
:102C4E00E12D089500240A160B0608953A932A934F
:102C5E001A930A9308953B812A8119810881089558
:00000001FF
