:080000000C9483020C94000033
:100008000C9400000C9400000C9400000C94000068
:100018000C9400000C94A1070C94CC070C94A6082F
:100028000C9400000C9424080C9400000C9400001C
:100038000C9486080C9400000C9400000C940000AA
:100048000C9418060C9400000C9400000C9400000A
:100058000C9400000C9400000C9400000C94000018
:100068000C9400000C9400000C94F7070C9400000A
:100078000C945F060C9400000C9400000C94000093
:100088000C9400004F0A4F0A00004F0A00002D0888
:100098004F0A0000400C000000000000200600008D
:1000A800000000002D0800000000200600000000ED
:1000B800260500000000E0060000B707000048071A
:1000C800E006000020064F0A400CC00D0000E90AB7
:1000D800400C00004F0A00002D082D09B70700004A
:1000E80000002D0800000000200600000000260582
:1000F80000000000E0060000B70700004807E0061F
:10010800000020064F0A400CC00D0000E90A400C10
:1001180000004F0A00002D082D09B7070000000055
:100128001E1E1E1E1E1E1E1E1E1E1E1E1E1E1E1EE7
:100138001E1E1E1E1E1E1E1E1E1E1E1E1E1E1E1ED7
:10014800232323181E1E1E1E1E1E1E1E1E1E1E1EBE
:100158001E1E1E1E1E1E1E1E1E1E1E1E1E1E1E23B2
:100168002323181E1E1E1E1E1E1E1E1E1E1E1027A8
:10017800E80364000A0001000010000110000100FB
:1001880000006400320032006400640000000000D7
:100198000000000000000000000000000000000057
:1001A8000000000000000000000000000000000047
:1001B800000000004B616C696272617369205365CD
:1001C8006E736F720053656C65736169203E3E3EC5
:1001D8003E3E3E3E3E00446968656E74696B616EE2
:1001E800203E3E3E3E3E004D657261682D48696A7C
:1001F80061752D4269727500312E5761726E6120EA
:100208004D65726168203E3E0054656B616E2054F6
:100218006F6D626F6C20313C3C00322E5761726EFC
:10022800612048696A6175203E3E00332E5761722D
:100238006E612042697275203E3E3E00342E576141
:10024800726E6120486974616D203E3E0048697491
:10025800616D50757469682D4D65726168004869F3
:1002680074616D50757469682D48696A61750048D4
:100278006974616D50757469682D426972752000E2
:10028800312E5761726E61205075746968203E3E48
:1002980000322E5761726E6120486974616D203E8C
:1002A8003E002020202D3D57454C434F4D453D2DC8
:1002B8002020002020202020202020202020202056
:1002C8002020200020202D3D524F424F56495045B6
:1002D800523D2D2000202052454144592E2E2E2ECD
:1002E8002E2E2E2E20004D414A552D57414B545548
:1002F800002564202564202564004D414A552D4A77
:100308004152414B004D554E4455522D57414B5487
:1003180055004D554E4455522D4A4152414B004BC4
:10032800414E414E2D57414B5455004B414E414E85
:100338002D444552414A4154004B4952492D574199
:100348004B5455004B4952492D444552414A41545A
:100358000047415249532D4B4952490057414B548C
:10036800552D4B4952490047415249532D4B414E57
:10037800414E0057414B54552D4B414E414E003391
:100388004B414E414E2D4B414E414E00334B414E59
:10039800414E2D4C5552555300334B4952492D4B24
:1003A80049524900334B4952492D4C555255530037
:1003B800504552454D504154414E2D4B414E414EB2
:1003C80000504552454D504154414E2D4B495249DC
:1003D80000504552454D504154414E2D4C555255B3
:1003E80053004A414C414E20424542415300427518
:1003F8007A7A6572205374617475733A004F4E00AF
:100408004F464600202D3D42757A7A6572204E612E
:1004180064613D2D00504553414E203A0044454CFF
:10042800415900475249505045523A0042554B41B4
:10043800200054555455500056415249415449469C
:10044800203A20004C454E47414E3A004E41494B18
:1004580000545552554E005355445554203A2000E7
:10046800504F4C413A00414E474B41540054415281
:100478005548005374616E6442792E2E2E2E2E2E0E
:100488002E2E2E2E00474F4F4F4F4F4F2E2E2E2ED3
:100498002E2E2E2E2E005345542050494400313A1A
:1004A800204B50202020323A204B44004B50000073
:1004B80001002D4E414E00494E4600000100020049
:1004C8008801000001001D0D8A01000001001F0DB8
:1004D8008C0100000100210D8E0100000100270D94
:1004E800900100000100290D9201000004000A009B
:1004F800B80100000100690DB80400000000F8947C
:10050800EE27ECBBF1E0F5BFE5BFE0936C00F8E146
:10051800F1BDE1BD8DE0A2E0BB27ED938A95E9F737
:1005280080E090E1A0E0B1E0ED930197E9F7E4EC19
:10053800F4E0D0E0DBBF87919791009781F0A79115
:10054800B79107901790C791D791BF01DBB7F0011A
:10055800CBBF07900D920197E1F7FB01EBCFEFEFCF
:10056800EDBFE0E1EEBFC0E0D9E00C94D01BBA9338
:10057800AA93A881B981E8EC0E945921DF01E2E140
:10058800F0E00E946421EC50FE4F22960895AA9351
:10059800A881BB27ECDFFBBDEABD0BC4AA93A881E9
:1005A800BB27E5DFF9BDE8BD04C4AA931A930A93F3
:1005B800AA81BB27DCDF8F011093790000937800B4
:1005C8001981088116C4BA93AA93E89420F8AB81DC
:1005D800AA2372F4EA81FB810E942521EF2FF0E023
:1005E800E0938500EA81E195E09384001D9807C0B7
:1005F800EB81E0938500EA81E09384001D9AA9814C
:10060800AA2372F4E881F9810E942521EF2FF0E0F6
:10061800E0938700E881E195E09386001A9807C087
:10062800E981E0938700E881E09386001A9AFAC28C
:10063800E0E0E0938700E0938600E0938500E09394
:1006480084000895AA93A981A03034F4E981E19542
:10065800E09300091D9804C0E981E09300091D9A00
:10066800A881A03034F4E881E195E09301091A9853
:1006780004C0E881E09301091A9A689420F80C9460
:10068800D3090E944822A0910109A13014F40C94C6
:100698008C03A0910309E0910109EA1B1E2FAAE02F
:1006A8001A029001E0910609E10FA0910709EA0FEB
:1006B800E0930709A0910709A13514F0E0E505C00A
:1006C800A0910709A03B1CF4E0EBE0930709E09137
:1006D8000709A5E0EA02F0012E0F3F1F2139E1E0EA
:1006E8003E072CF0E1E0E0938700E0E90CC000242D
:1006F800021603062CF4309387002093860005C069
:10070800E0E0E0938700E09386001093060907C0B5
:10071800E0E0E0938700E0938600E09307090E94F9
:100728004F2280C20E944822A0910009A13014F4EF
:100738000C94DD03A0910209E0910009EA1B1E2F29
:10074800E0910809AAE0EA029001E10FA0910909E5
:10075800EA0FE0930909A0910909A13514F0E0E531
:1007680005C0A0910909A03B1CF4E0EBE09309093E
:10077800E0910909A5E0EA02F0012E0F3F1F213997
:10078800E1E03E072CF0E1E0E0938500E0E90CC0F1
:100798000024021603062CF430938500209384006D
:1007A80005C0E0E0E0938500E09384001093080919
:1007B80007C0E0E0E0938500E0938400E093090936
:1007C8000E944F222FC2AA93E881E07FE460EBBB2E
:1007D80085E08A95F1F7DA98ECC2AA93D898E8816F
:1007E800E07FEC60EBBB85E08A95F1F7DA988BE166
:1007F8008A95F1F7E881E295E07FEC60EBBB85E054
:100808008A95F1F7DA9880EF9AE00197F1F7DA9A8A
:10081800D0C2AA93D89AE881E07FED60EBBB85E06F
:100828008A95F1F7DA988BE18A95F1F7E881E295F4
:10083800E07FED60EBBB85E08A95F1F7DA9885ED0E
:100848008A95F1F7DA9AB5C2A2E3B0E00E946F1F69
:10085800A0E3B9DFA5E0B0E00E946F1FA0E3B3DF1B
:10086800A1E0B0E00E946F1FA0E3ADDFA1E0B0E01F
:100878000E946F1FA0E2A7DFA8E2AFDFA0E1ADDF13
:10088800ACE0ABDFA6E0A9DF33C0AA931A93E981F5
:10089800E03019F4AA81A05802C0AA81A0549DDFB3
:1008A800A7C20E9406220E94F2216BBFE691E030A7
:1008B80099F00E94F2216BBFA691ABDFDE010E9486
:1008C800DF21EF5FFF4F6F4F7F4F0E94E421E15020
:1008D800F04060407040E7CFA5C10E940622E0E0EA
:1008E800EA93AD81D2DF0E94F721DBDF25960895D8
:1008F800A1E073DF0895AA931A930A93EA81A0E40A
:10090800EA9FF001E0580E2F1FE0EFEFE1175CF4CB
:10091800A12FA00F62DFA0E27CDFA2E3B0E00E947B
:100928006F1F1150F2CF1981088163C20E940622FD
:100938001A93E0E0EA93AE81A8DF10E0103198F452
:10094800E12FA981BA818B819C81FF2766277727B0
:100958000E941B216BBFA6915CDFA2E3B0E00E945E
:100968006F1F1F5FEBCF1881269608950E940622FD
:100978001A930A93EE81A0E4EA9FF001E0580E2F43
:100988001FE0EFEFE117ACF4A12FA00F26DFE12F56
:10099800AA81BB818C819D810E9436210E941B21E6
:1009A8006BBFA69136DFA2E3B0E00E946F1F115023
:1009B800E8CF3EC00E9406221A930A93EE81A0E473
:1009C800EA9FF001E0580E2F17E0EFEFE11784F5EA
:1009D800A12FA00F02DFE12FAA81BB818C819D810D
:1009E8000E9436210E941B216BBFA69112DFA2E351
:1009F800B0E00E946F1FE02FE11BE15FAE2FEDDE3C
:100A0800E12FAA81BB818C819D810E9436210E94A1
:100A180010220E942021E15FFF4F6F4F7F4F6BBF75
:100A2800A691F7DEA2E3B0E00E946F1F1150CDCF70
:100A38001981088127960895BA93AA93A981AA23B0
:100A480052F4E881F981AFEFBFEF0E945F21E8839C
:100A5800F983ADE2DEDEA881B981E8EEF3E00E9419
:100A68007721E05DAE2FD5DEA881B981E8EEF3E00D
:100A78000E94A621DF01E4E6F0E00E947721E05D14
:100A8800AE2FC7DEA881B981E4E6F0E00E94A62176
:100A9800DF01EAE0F0E00E947721E05DAE2FB9DEE9
:100AA800A881B981EAE0F0E00E94A621E05DAE2FBE
:100AB800B0DE0C94D309BA93AA93A981AA2352F45D
:100AC800E881F981AFEFBFEF0E945F21E883F983E6
:100AD800ADE29FDEA881B981E4E6F0E00E947721CB
:100AE800E05DAE2F96DEA881B981E4E6F0E00E94D1
:100AF800A621DF01EAE0F0E00E947721E05DAE2F59
:100B080088DEA881B981EAE0F0E00E94A621E05DD4
:100B1800AE2F7FDE0C94D309E0E0E0937100E8E4A7
:100B2800E09370000895E0E0E3BFC498E0BF089543
:100B3800BA93AA93A881B981AD37E0E0BE0720F047
:100B4800A131E7E2BE0708F060C0A881B981A03DE5
:100B5800E7E0BE0778F0EAE1E3BFE0E0E2BFE88162
:100B6800F98166277727A0E2B1EA87E090E00E9442
:100B7800A121E1BFA881B981A83EE3E0BE0778F0D2
:100B8800EBE1E3BFE0E0E2BFE881F9816627772780
:100B9800A0E9B0ED83E090E00E94A12134C0A881D3
:100BA800B981A43FE1E0BE0778F0ECE1E3BFE0E003
:100BB800E2BFE881F98166277727A8E4B8EE81E0EB
:100BC80090E00E94A1211FC0A881B981AA3FE0E05E
:100BD800BE0778F0EDE1E3BFE0E0E2BFE881F9812C
:100BE80066277727ACEAB7E081E090E00E94A12170
:100BF8000AC0EEE1E3BFE0E0E2BFE881F981A6EDDB
:100C0800B3E80E946421E1BF01C08DDF0C94D309D1
:100C1800BA93AA93AA81BB818BDFA881B9810E946C
:100C28006F1F81DF24960895AA93EA93FA93EFB78A
:100C3800EA931A930A931BB10CB1E12FEC71C9F432
:100C4800F20131962F013197E65FF64F0083E0E01D
:100C5800F2E0E415F50511F444245524F401319625
:100C68004F01E030A2E0FA0721F48824992468941F
:100C780025F809911991E991EFBFF991E991A991A5
:100C880018951A93082C0928E9F3F30131963F01C6
:100C98003197E65FF64F1081E0E0F2E0E615F705E0
:100CA80011F466247724F894F40131974F0178946D
:100CB800E12F19910895AA93EA93FA93EFB7EA936B
:100CC8002597E0919B00E983E0919C00E883E98106
:100CD800EC7119F5E0910A0DF0E0E65FF44FA88198
:100CE800A083E0910A0DEF5FE0930A0DF0E0E03099
:100CF800A2E0FA0719F4E0E0E0930A0DE0910C0D88
:100D0800EF5FE0930C0DF0E0E030A2E0FA0729F481
:100D1800E0E0E0930C0D689426F82596E991EFBF82
:100D2800F991E991A9911895BA93AA930E9448223A
:100D3800E89422F800E010E0EC81FD810E171F070F
:100D480058F5E0910C0DE03009F1689422F8E09133
:100D58000B0DF0E0E65FF44F3081E0910B0DEF5F93
:100D6800E0930B0DF0E0E030A2E0FA0719F4E0E0C0
:100D7800E0930B0DF894E0910C0DE150E0930C0D0D
:100D88007894E32F0E944F220C94110C85E08A95E9
:100D9800F1F70F5F1F4FD0CFE0E00E944F220C9475
:100DA800110CAA93E0919B00E072E1F3E881E093D3
:100DB8009C0021960895AA93E981A881EA2BAE2F79
:100DC800F0DF0C94D309AA931A9310E0153620F497
:100DD8009B9910E01F5FFACF9B9907C0EA81A98110
:100DE800EA2BAE2FDEDFE1E003C0A0E0DADFE0E0CF
:100DF800188123960895A1E0F0DCE0E0EA93ACEBDB
:100E0800B1E080E090E069DDE1E0EA93ADECB1E0CB
:100E180080E090E00FC0A1E0E0DCE0E0EA93ACEB1A
:100E2800B1E080E090E059DDE1E0EA93AEEDB1E0B9
:100E380080E090E07BDD0895AA93A1E0CEDCE0E0BD
:100E4800EA93ACEBB1E080E090E047DDA881A03CFC
:100E580041F4E1E0EA93A5E5B2E080E090E03DDD11
:100E68001AC0A881A03A41F4E1E0EA93A6E6B2E00C
:100E780080E090E032DD0FC0A881A03941F4E1E0C4
:100E8800EA93A7E7B2E080E090E027DD04C0C3DF83
:100E9800E0E00C94D309E8EBFBE0FA93EA93A4EFC3
:100EA800B1E0B6DEA8EEB3E00E946F1FA1E095DCCA
:100EB800E981A881EA2BAE2F74DFE0E0EA93A8E885
:100EC800B2E080E090E032DDE1E0EA93A1E1B2E057
:100ED80080E090E04BDDE981EA93A98174DFE0309E
:100EE80041F1E8EBFBE0FA93EA93A8ECB0E090DE7E
:100EF800A0E001DDE0E0EA93A9E9B2E080E090E05B
:100F080015DDE981EA93A9815EDFE03091F0E8EB35
:100F1800FBE0FA93EA93A8ECB0E07ADEA8E8B3E144
:100F280003DFAE2FE881EA1721F465DFE1E00C94D6
:100F3800D30971DFE0E00C94D309EA93FA93EFB791
:100F4800EA930E9B0EC0B09B06C0F894F50131974A
:100F58005F01789405C0F894F50131965F017894A3
:100F68000DC0B09B06C0F894F50131965F017894E6
:100F780005C0F894F50131975F017894E091040970
:100F8800EF5FE0930409E991EFBFF991E9911895B2
:100F9800EA93FA93EFB7EA930F9B0EC0B29B06C091
:100FA800F894F60131966F01789405C0F894F6012B
:100FB80031976F0178940DC0B29B06C0F894F60182
:100FC80031976F01789405C0F894F60131966F0156
:100FD8007894E0910509EF5FE0930509E991EFBF87
:100FE800F991E9911895AA93BA93EA93FA93EFB70E
:100FF800EA93AEE0BDE0ED91FD913196FE93EE935C
:101008003197A0E1BDE0ED91FD913196FE93EE930D
:10101800E135A0E0FA0768F0A091100DB091110D2C
:10102800A132E3E0BE0728F0E0E0E093100DE09382
:10103800110DE991EFBFF991E991B991A99118952D
:101048000A921A92FA926A937A938A939A93AA9333
:10105800BA93EA93FA93EBB7EA93EFB7EA937894E3
:10106800A091120DAF5FA093120DA53030F0E0E013
:10107800E093120DEAEAEFBD05C0E2E0EFBDC598C6
:10108800C698C79821FE2EC0A091140DAF5FA093FB
:10109800140DE091130DFF2766277727E85DFE4FB3
:1010A8006F4F6BBFE691AE17E8F0E0E0E093140DE8
:1010B800E091130DACE8B0E080E0FF2766277727C2
:1010C8000E9431210E941B210E94EE210E949C0552
:1010D800A091130DAF5FA093130DAE3418F0E0E0AC
:1010E800E093130DE991EFBFE991EBBFF991E99115
:1010F800B991A9919991899179916991F9901990EA
:1011080009901895AA93BA93EA93FA93EFB7EA93DA
:10111800E091170DEF5FE093170DA091170DA93C13
:1011280050F0E0E0E093170DA5E1BDE0ED91FD91F1
:101138003196FE93EE93E991EFBFF991E991B99158
:10114800A99118950A921A92FA926A937A938A93B5
:101158009A93AA93BA93EA93FA93EBB7EA93EFB701
:10116800EA93E0910D0DEF5FE0930D0D7894A09157
:101178001A0DAF5FA0931A0DA430D9F4E091180DA1
:10118800A0910409EA1730F4A091180DE091040920
:10119800EA1B08C0A091180DEFEFEA1BA091040903
:1011A800EA0FEF5FE0930209E0910409E093180D5C
:1011B80033C0A0911A0DA53029F420FE02C00E9468
:1011C80096032AC0A0911A0DA930D9F4E091190DFF
:1011D800A0910509EA1730F4A091190DE0910509CD
:1011E800EA1B08C0A091190DEFEFEA1BA0910509B1
:1011F800EA0FEF5FE0930309E0910509E093190D09
:101208000BC0A0911A0DAA3038F020FE02C00E942F
:101218004503E0E0E0931A0DE991EFBFE991EBBFD8
:10122800F991E991B991A9919991899179916991E6
:10123800F990199009901895E0E0EBBBEFEFEABB45
:10124800E5E0E8BBE8EFE7BBEFE0E5BBE0EFE4BBD8
:10125800E2BBE0E0E1BBE0ECE3B9ECE3E2B9E0E0FB
:10126800E0936200E4E0E0936100E7E1E093650069
:10127800E0E0E0936400E0BFE3BFE2BFE1BFEAEA79
:10128800EFBDE2E1EEBDE0E0EDBDECBDE7E2E7BDBC
:10129800E0E1E6BDE3E1E7BDE8E8E6BDE0E0EBBD9F
:1012A800EABDE9BDE8BDE0937900E0937800EBE0A2
:1012B800E5BDE0E0E4BDEAEFE3BDE2EFE0938B00DB
:1012C800E1E1E0938A00E0E0E0938900E0938800A0
:1012D800E1E0E0938100E0E9E0938000E0E0E09362
:1012E8008700E0938600E0938500E0938400E09314
:1012F8008300E8ECE0938200E0E0E0936A00E0E538
:10130800EABFE0ECE9BFE8BFE4EAE7BFE2E0E09368
:101318007D00E0E0EBB9E0E9EAB9E6E0E0939500AA
:10132800E0E0E0939000E7E6E9B9E0E0E0939B00B5
:10133800E8E9E0939A00E6E0E0939D00E0E0E093BE
:101348009800E7E6E0939900E0E8E8B9E0E0E0BD5E
:101358000E9428040E941C03AAE50E94CB02AAE569
:101368000E94D202AAE50E94D902F8940E94900530
:10137800789478940895AA93E981EA93A9810E94C0
:10138800DF06A8E8B3E10E949806AE2FE881EA17C5
:1013980029F4A8E8B3E10E94980601C0E0E022968B
:1013A8000895AA9326970E944622E0E0EA93AD8525
:1013B8000E94DF06A8E8B3E10E949806AE2FEC85EC
:1013C800EA1711F00C949E0AA8E8B3E10E94980667
:1013D8001E2FE12FEF3719F4E9EFFFEF4BC0EF3382
:1013E80019F4EAEFFFEF46C0EF3B19F4EBEFFFEF1C
:1013F80041C0EF3919F4ECEFFFEF3CC0EF3D19F4B1
:10140800EDEFFFEF37C0EF3C19F4EEEFFFEF32C01E
:10141800EF3E19F4EFEFFFEF2DC0E73E21F4E0E0D7
:10142800EA87EB8729C0E73F19F4E1E0F0E022C042
:10143800E33F19F4E2E0F0E01DC0EB3F19F4E3E00C
:10144800F0E018C0E93F19F4E4E0F0E013C0ED3F24
:1014580019F4E5E0F0E00EC0EC3F19F4E6E0F0E046
:1014680009C0EE3F19F4E7E0F0E004C0E0911B0D7D
:10147800F0911C0DEA87FB87A0911B0DB0911C0D04
:10148800EA85FB85EA1BFB0BE887F987EA85FB857C
:10149800E0931B0DF0931C0DAD85BE85AC32E1E0E9
:1014A800BE0764F0EA85FB85A4E1B0E00E945F21F5
:1014B800BF01E885F985A6E9B0E00BC0EA85FB85A0
:1014C800A4E1B0E00E945F21BF01E885F985A8E7A3
:1014D800B0E00E945F21E60FF71FEE83FF83AD8522
:1014E800BE85EA0FFB1F9F01AE81BF81ED85FE859A
:1014F800EA1BFB0BAF012139E1E03E071CF020E9B4
:1015080031E006C02037EEEF3E0714F420E73EEF47
:101518004139E1E05E071CF040E951E006C0403780
:10152800EEEF5E0714F440E75EEF3A932A93DA0190
:101538000E94E7020E944D222F960895AA931A93BB
:101548000A93EC81FD81A0911D0DB0911E0D0E94A2
:101558004B210E2EA0E027FCA1E0E1E00E944621ED
:10156800E02931F0E4E6F0E0E0931D0DF0931E0D64
:10157800E89427F800E00F3F08F40F5FEC81FD8145
:10158800A0911D0DB0911E0DAE17BF074CF4E09150
:101598001D0DF0911E0D3796E0931D0DF0931E0D55
:1015A800E0911D0DF0911E0DFA93EA93AD81F9DEDD
:1015B800E0E0EA93AB81DFDE1E2FE12FE36CE33C32
:1015C800D1F6E0911D0DF0911E0DFA93EA93AD81CD
:1015D800E8DEE0E0EA93AB81CEDE1E2FE12FE36C7C
:1015E800E33C79F30E941C03EC81FD81E0931D0D1F
:1015F800F0931E0D1981088110C1AA931A930A93BA
:10160800EC81FD81A0911F0DB091200DEA17FB0719
:1016180024F4E0931F0DF093200D27FE06C0E2E3AB
:10162800F0E0E0931F0DF093200DE89427F800E018
:101638000F3F08F40F5FEC81FD81A0911F0DB09161
:10164800200DAE17BF074CF4E0911F0DF091200D4F
:101658003A96E0931F0DF093200DE0911F0DF09145
:10166800200DFA93EA93AD819CDEE0E0EA93AB812A
:1016780082DE1E2FE12FE86FE83FD1F6E0911F0DC3
:10168800F091200DFA93EA93AD818BDEE0E0EA93C6
:10169800AB8171DE1E2FE12FE86FE83F79F30E94DE
:1016A8001C03EC81FD81E0931F0DF093200D19813F
:1016B8000881B3C0AA931A930A93EC81FD81A09183
:1016C800210DB091220DEA17FB0724F4E093210DB8
:1016D800F093220D27FE06C0E2E3F0E0E093210D2F
:1016E800F093220DE89427F800E00F3F08F40F5F0D
:1016F800EC81FD81A091210DB091220DAE17BF079D
:101708004CF4E091210DF091220D3A96E093210DD1
:10171800F093220DE091210DF091220DFA93EA93B6
:10172800AD813FDEE0E0EA93AB8125DE1E2FE12F9D
:10173800EF61EF31D1F6E091210DF091220DFA938E
:10174800EA93AD812EDEE0E0EA93AB8114DE1E2F32
:10175800E12FEF61EF3179F30E941C03EC81FD81E9
:10176800E093210DF093220D1981088156C0AA93A8
:101778001A93EC81FD81FA93EA93AC81BD810E94B2
:10178800E702689427F8A2E3B0E00E946F1FE0E048
:10179800EA93AA81F0DD1E2F10FF02C011FD01C0DF
:1017A800F6CFA2E3B0E00E946F1FE0E0EA93AA81BF
:1017B800E2DD1E2F10FF02C011FD01C001C0F5CFF0
:1017C80029C0AA931A93EC81FD81FA93EA93AC811C
:1017D800BD810E94E702689427F8A2E3B0E00E9466
:1017E8006F1FE0E0EA93AA81C6DD1E2F17FF02C033
:1017F80016FD01C0F6CFA2E3B0E00E946F1FE0E043
:10180800EA93AA81B8DD1E2F17FF02C016FD01C09A
:1018180001C0F5CF0E941C03188126960895BA933B
:10182800AA932D970E944622E4E5E0936100E0E048
:10183800E09362008BE08A95F1F7E0E1E0936200C3
:1018480085E38A95F1F7E0E0E0936200E0930E0DFE
:10185800E0930F0D059906C0A0910E0DB0910F0DE4
:10186800989708F001C0F6CFE0E0E0930E0DE09302
:101878000F0D059B08C0A0910E0DB0910F0DA03A59
:10188800E5E0BE0708F001C0F4CFE0910E0DF0913D
:101898000F0D662777270E94DF1FADECBCEC8CED9F
:1018A8009EE30E9464200E94A81FAF01AAE0B0E056
:1018B8000E946F1FE0E0E09362008BE08A95F1F7E9
:1018C800E0E4E093620085E38A95F1F7E0E0E093D5
:1018D8006200E0930E0DE0930F0D079906C0A091EA
:1018E8000E0DB0910F0D989708F001C0F6CFE0E00B
:1018F800E0930E0DE0930F0D079B08C0A0910E0D0D
:10190800B0910F0DA03AE5E0BE0708F001C0F4CF92
:10191800E0910E0DF0910F0D662777270E94DF1FCB
:10192800ADECBCEC8CED9EE30E9464200E94A81FE5
:101938009F01AAE0B0E00E946F1F0E947C04E0E0D3
:10194800EA93A0E00E944904D9010E945F05E8E0FB
:10195800EA93A0E00E944904DA010E945F0545313C
:10196800E0E05E073CF4E8ECF0E0FA93EA93A8E3E1
:10197800BFEF66C0EB89FC893A96E217F3073CF49F
:10198800E2E3F0E0FA93EA93A8ECB0E059C0EB89FF
:10199800FC89E21BF30BEB87FC87A091230DB09128
:1019A800240DEA1BFB0BE987FA87EB85FC85E0939E
:1019B800230DF093240DA0E0B0E00E941D22AB851A
:1019C800BC850E945121BF01A2E0B0E00E941D2207
:1019D800A985BA850E945121E60FF71FEF83F88782
:1019E800AD89BE89EA0FFB1FEF87F88BAF81B885F9
:1019F800ED89FE89EA1BFB0BED87FE87AF85B88969
:101A0800A139E1E0BE0724F4A037EEEFBE0724F4C5
:101A1800E0E9F1E0EF87F88BAD85BE85A139E1E01B
:101A2800BE0724F4A037EEEFBE0724F4E0E9F1E0A6
:101A3800ED87FE87EF85F889FA93EA93AF85B88931
:101A48000E94E70223C1BA93AA932D970E944622C7
:101A5800E4E5E0936100E0E0E09362008BE08A95C2
:101A6800F1F7E0E1E093620085E38A95F1F7E0E0C1
:101A7800E0936200E0930E0DE0930F0D059906C008
:101A8800A0910E0DB0910F0D989708F001C0F6CFF8
:101A9800E0E0E0930E0DE0930F0D059B08C0A091C8
:101AA8000E0DB0910F0DA03AE5E0BE0708F001C099
:101AB800F4CFE0910E0DF0910F0D662777270E9465
:101AC800DF1FADECBCEC8CED9EE30E9464200E940D
:101AD800A81FAF01AAE0B0E00E946F1FE0E0E0930A
:101AE80062008BE08A95F1F7E4E0E093620085E319
:101AF8008A95F1F7E0E0E0936200E0930E0DE09341
:101B08000F0D039906C0A0910E0DB0910F0D989777
:101B180008F001C0F6CFE0E0E0930E0DE0930F0D62
:101B2800039B08C0A0910E0DB0910F0DA03AE5E0FF
:101B3800BE0708F001C0F4CFE0910E0DF0910F0D33
:101B4800662777270E94DF1FADECBCEC8CED9EE387
:101B58000E9464200E94A81F9F01AAE0B0E00E9492
:101B68006F1F0E947C04E0E0EA93A0E00E94490411
:101B7800D9010E945F05E8E0EA93A0E00E944904C9
:101B8800DA010E945F05E8E0EA93A1E00E944904B7
:101B9800E0E027FCE1E0F0E0DF010E945F0545316D
:101BA800E0E05E073CF4E8E3FFEFFA93EA93A8EC81
:101BB800B0E06AC0EB89FC893A96E217F3074CF467
:101BC800AC9AAD9AE8ECF0E0FA93EA93A2E3B0E0BD
:101BD8005BC0EB89FC89E21BF30BEB87FC87A091C8
:101BE800250DB091260DEA1BFB0BE987FA87EB85DB
:101BF800FC85E093250DF093260DA0E0B0E00E944F
:101C08001D22AB85BC850E945121BF01A2E0B0E036
:101C18000E941D22A985BA850E945121E60FF71F4F
:101C2800EF83F887AF81B885ED89FE89EA1BFB0B46
:101C3800EF87F88BEF81F885AD89BE89EA0FFB1F26
:101C4800ED87FE87AF85B889A139E1E0BE0724F4A6
:101C5800A037EEEFBE0724F4E0E9F1E0EF87F88B58
:101C6800AD85BE85A139E1E0BE0724F4A037EEEFCB
:101C7800BE0724F4E0E9F1E0ED87FE87EF85F889F7
:101C8800FA93EA93AF85B8890E94E7020E944D2231
:101C980067960895AA931A930A93ED81FE81A091FD
:101CA800270DB091280D0E944B210E2EA0E027FC95
:101CB800A1E0E1E00E944621E02931F0E4E6F0E00D
:101CC800E093270DF093280DE89427F800E00F3FE4
:101CD80008F40F5FED81FE81A091270DB091280DCA
:101CE800AE17BF074CF4E091270DF091280D3796F9
:101CF800E093270DF093280DE091270DF091280D22
:101D0800FA93EA93AD81BE818ADDE0E0EA93AB8184
:101D180032DB1E2F1F3FD9F2E091270DF091280DDD
:101D2800FA93EA93AD81BE817ADDE0E0EA93AB8174
:101D380022DB1E2F1F3F81F70E941C03ED81FE81CD
:101D4800E093270DF093280D5AC0AA931A930A938B
:101D5800ED81FE81A091290DB0912A0D0E944B21A1
:101D68000E2EA0E027FCA1E0E1E00E944621E02938
:101D780031F0E4E6F0E0E093290DF0932A0DE894C1
:101D880027F800E00F3F08F40F5FED81FE81A09176
:101D9800290DB0912A0DAE17BF074CF4E091290D1B
:101DA800F0912A0D3796E093290DF0932A0DE091D2
:101DB800290DF0912A0DFA93EA93AD81BE8143DE95
:101DC800E0E0EA93AB81D7DA1E2F1F3FD9F2E0910A
:101DD800290DF0912A0DFA93EA93AD81BE8133DE85
:101DE800E0E0EA93AB81C7DA1E2F1F3F81F70E941C
:101DF8001C03ED81FE81E093290DF0932A0D1981D2
:101E0800088127960895AA93E0E0E093170DE093E0
:101E1800150DE093160DE881A091150DB091160DE2
:101E2800F0E0EA17FB0740F0EB81FC81FA93EA93B4
:101E3800AB81BC81F4DCEFCF19C0AA93E0E0E0935A
:101E4800170DE093150DE093160DE881A091150D7F
:101E5800B091160DF0E0EA17FB0740F0EB81FC812A
:101E6800FA93EA93AB81BC81EEDDEFCF0E941C03AD
:101E780025960895A0EA0E94CB02AAE50E94D20204
:101E8800AAE50E94D902A4EFB1E00E946F1FA0EA60
:101E98000E94CB02AAE50E94D202A0EA0E94D902BF
:101EA800E0E0E093670DA091670DA33038F5E0916D
:101EB800670DACE8B0E080E0FF27662777270E942F
:101EC80031210E941B210E94E921FA93EA93E091B3
:101ED800670DFF2766277727E85DFE4F6F4F6BBFBB
:101EE800E691ADE0EA9FF001F0E0DF010E940C0608
:101EF800E091670DEF5FE093670DD5CFA0EA0E94F0
:101F0800CB02A4E10E94D202A0EA0E94D902E3E037
:101F1800E093670DA091670DA53038F5E091670D46
:101F2800ACE8B0E080E0FF27662777270E943121E0
:101F38000E941B210E94E921FA93EA93E091670D20
:101F4800FF2766277727E85DFE4F6F4F6BBFE69147
:101F5800ADE0EA9FF001F0E0DF010E940C06E0919D
:101F6800670DEF5FE093670DD5CFA6E40E94CB0223
:101F7800A4E10E94D202A0EA0E94D902E5E0E0931F
:101F8800670DA091670DA83038F5E091670DACE8B2
:101F9800B0E080E0FF27662777270E9431210E9462
:101FA8001B210E94E921FA93EA93E091670DFF272C
:101FB80066277727E85DFE4F6F4F6BBFE691ADE070
:101FC800EA9FF001F0E0DF010E940C06E091670D46
:101FD800EF5FE093670DD5CFA6E40E94CB02AAE598
:101FE8000E94D202AAE50E94D902E8E0E093670DB8
:101FF800A091670DAC3038F5E091670DACE8B0E022
:1020080080E0FF27662777270E9431210E941B2145
:102018000E94E921FA93EA93E091670DFF2766276A
:102028007727E85DFE4F6F4F6BBFE691ADE0EA9F03
:10203800F001F0E0DF010E940C06E091670DEF5F10
:10204800E093670DD5CFA0EA0E94CB02AAE50E94D3
:10205800D202AAE50E94D902ECE0E093670DA091B4
:10206800670DA03138F5E091670DACE8B0E080E08D
:10207800FF27662777270E9431210E941B210E9493
:10208800E921FA93EA93E091670DFF2766277727FE
:10209800E85DFE4F6F4F6BBFE691ADE0EA9FF00140
:1020A800F0E0DF010E940C06E091670DEF5FE0931E
:1020B800670DD5CF0E947C04E0E0EA93A0E00E947F
:1020C8004904E0E0EA93AAEAB2E080E090E00E94E6
:1020D800DE04A8EEB3E00E946F1FE0E0EA93ABEBEA
:1020E800B2E080E090E00E94DE04E0E0EA93ACEC2D
:1020F800B2E080E090E00E94DE04A4EFB1E00E942C
:102108006F1FE1E0EA93ADEDB2E080E090E00E945D
:102118009A04A8EEB3E00E946F1F08950E947C0401
:102128000E944506E0932B0D0E944506E0932C0D76
:102138000E944506E0932D0D0E944506E0932E0D62
:10214800E0912B0DE03011F00C94B611E0912C0DBC
:10215800E03011F00C940A110E944506E0932F0D0F
:10216800E0E0EA93AEEEB2E080E090E00E94710415
:10217800E7E5FDE0FA93EA93E9EFF2E060E070E06A
:102188000E940122E0912D0DFF27662777270E94E4
:102198000122E0912E0DFF27662777270E94012252
:1021A800E0912F0DFF27662777270E9401228CE0F8
:1021B8000E94171F6296E0E0EA93A1E00E9449049A
:1021C800A0912E0DB0E00E945F05E8E0EA93A1E03F
:1021D8000E944904A0912F0DB0E00E945F05E09194
:1021E8002E0DEA93A0912F0D0E942603A0912D0D8C
:1021F800B0E0E8EEF3E00E945121DF010E946F1F7A
:10220800E0E0EA93A0E00E942603ABC0A0912C0D69
:10221800A13011F00C94B5112297E0E0E883E9832E
:10222800AA24BB24CC24DD24EA93A2E0B3E080E016
:1022380090E00E947104E7E5FDE0FA93EA93E9EF84
:10224800F2E060E070E00E940122E0912D0DFF278E
:10225800662777270E940122E0912E0DFF27662727
:1022680077270E940122E0912F0DFF276627772705
:102278000E9401228CE00E94171F6296EDE0EA930B
:10228800A0E00E944904A0912D0DB0E00E945F05D6
:10229800EDE0EA93A1E00E944904A0912D0DB0E081
:1022A800EBE1F1E00E945121662777270E94DF1FAA
:1022B800DF01CB01ECE7F9ED60EA71E40E94B2209E
:1022C8000E94A81FDF010E945F05E0912E0DEA938E
:1022D800A0912E0D0E942603A0912D0DB0E0EBE1F8
:1022E800F1E00E945121662777270E94DF1FDF0156
:1022F800CB01ECE7F9ED60EA71E40E94B220A88115
:10230800B9810E9441210E940D220E94F72019F0F4
:1023180010F00C94AF11D601AA0DBB1DE2E0F0E05D
:102328000E947721E883F983E0E0EA93A1E00E9424
:102338004904D5010E942005A0E20E940D04E6E0B0
:10234800EA93A1E00E944904D6010E942005A0E278
:102358000E940D04C1CFE0E0EA93A0E00E942603AA
:102368002296FCC3A0912B0DA13011F00C94E81219
:102378002497E0912C0DE03011F00C942A120E9461
:102388004506E0932F0DE0E0EA93ADE0B3E080E08E
:1023980090E00E947104E7E5FDE0FA93EA93E9EF23
:1023A800F2E060E070E00E940122E0912D0DFF272D
:1023B800662777270E940122E0912E0DFF276627C6
:1023C80077270E940122E0912F0DFF2766277727A4
:1023D8000E9401228CE00E94171F6296E0E0EA93B7
:1023E800A1E00E944904A0912E0DB0E00E945F0573
:1023F800E8E0EA93A1E00E944904A0912F0DB0E023
:102408000E945F05E0912E0DF0E0EA83FB83E091E6
:102418002F0DF0E0E883F983EA81AFEFEA020A9230
:10242800E981EA02F001AE2F0E942603A0912D0D4A
:10243800B0E0E8EEF3E00E945121DF010E946F1F37
:10244800E0E0EA93A0E00E942603BCC0A0912C0D16
:10245800A13011F00C94E6122297E0E0E883E983BA
:10246800AA24BB24CC24DD24EA93AAE1B3E080E0CB
:1024780090E00E947104E7E5FDE0FA93EA93E9EF42
:10248800F2E060E070E00E940122E0912D0DFF274C
:10249800662777270E940122E0912E0DFF276627E5
:1024A80077270E940122E0912F0DFF2766277727C3
:1024B8000E9401228CE00E94171F6296EDE0EA93C9
:1024C800A0E00E944904A0912D0DB0E00E945F0594
:1024D800EDE0EA93A1E00E944904A0912D0DB0E03F
:1024E800EBE1F1E00E945121662777270E94DF1F68
:1024F800DF01CB01ECE7F9ED60EA71E40E94B2205C
:102508000E94A81FDF010E945F05E0912E0DF0E0F8
:10251800EC83FD83E0912E0DF0E0EA83FB83EC81F0
:10252800AFEFEA020A92EB81EA02F001AE2F0E94B5
:102538002603A0912D0DB0E0EBE1F1E00E945121BE
:10254800662777270E94DF1FDF01CB01ECE7F9ED53
:1025580060EA71E40E94B220A881B9810E944121F9
:102568000E940D220E94F72019F010F00C94E0123E
:10257800D601AA0DBB1DE2E0F0E00E947721AFEF83
:10258800BFEF0E945F21E883F983E0E0EA93A1E0CE
:102598000E944904D5010E942005A0E20E940D0472
:1025A800E6E0EA93A1E00E944904D6010E942005D2
:1025B800A0E20E940D04BDCFE0E0EA93A0E00E94F3
:1025C800260322962496CAC2A0912B0DA23011F0A0
:1025D8000C944C142297E0912C0DE03011F00C94DF
:1025E80057130E944506E0932F0DE0E0EA93A7E217
:1025F800B3E080E090E00E947104E7E5FDE0FA9323
:10260800EA93E9EFF2E060E070E00E940122E091D5
:102618002D0DFF27662777270E940122E0912E0DB6
:10262800FF27662777270E940122E0912F0DFF27B9
:10263800662777270E9401228CE00E94171F629666
:10264800E0912F0DF0E0E883F983E0E0EA93A1E060
:102658000E944904A0912E0DB0E00E945F05E8E0B9
:10266800EA93A1E00E944904A0912F0DB0E00E94D6
:102678005F05E0912E0DEA93E981AFEFEA02F001E0
:10268800AE2F0E942603A0912D0DB0E0E8EEF3E0F6
:102698000E945121DF010E946F1FE0E0EA93A0E051
:1026A8000E942603F4C0A0912C0DA13011F00C94C7
:1026B8004B14629782E1A0E0B0E0E4E9F1E060E069
:1026C8000E945422AA24BB24CC24DD24E0E0EA930F
:1026D800A3E3B3E080E090E00E947104E7E5FDE049
:1026E800FA93EA93E9EFF2E060E070E00E940122D9
:1026F800E0912D0DFF27662777270E940122E091A0
:102708002E0DFF27662777270E940122E0912F0DC3
:10271800FF27662777270E9401228CE00E94171F57
:102728006296EDE0EA93A1E00E944904A0912D0D84
:10273800B0E00E945F05E0912E0DF0E0EA8BFB8B84
:10274800E0E0EA93A0E00E942603A4EFB1E00E9433
:102758006F1FE0912E0DEA93EB89AFEFEA02F001CB
:10276800AE2F0E942603E0912D0DAC81BD818E8194
:102778009F81FF27662777270E94DF1F0E94F72087
:1027880019F010F00C944514F601AFEFBFEF0E945A
:102798005F21EA0DFB1DDF01E2E0F0E00E947721F6
:1027A800E88BF98BF5010E943C210E94DF1FACE702
:1027B800B9ED80EA91E40E946420DF01CB01E0E0FA
:1027C800F0E86DE873E40E94B220EC87FD876E871D
:1027D8007F87F6010E943C210E94DF1FACE7B9ED1C
:1027E80080EA91E40E946420DF01CB01E0E0F0E898
:1027F8006DE873E40E94B220E887F9876A877B87CF
:10280800A885B9858A859B85EC85FD856E857F853C
:102818000E941220DF01CB01E0E0F0E068E771E4FC
:102828000E94B2200E94FC210E94F721E1EEFEE204
:1028380065E672E40E946420EC83FD836E837F83E7
:10284800E0E0EA93A1E00E9449040E94F2210E947C
:10285800A81FDF010E942005A0E20E940D04E6E007
:10286800EA93A1E00E944904EC81FD816E817F8199
:102878000E94A81FDF010E942005A0E20E940D040B
:1028880072CFE0E0EA93A0E00E942603629665C159
:10289800A0912B0DA33011F00C94B2152297E09162
:1028A8002C0DE03011F00C94B9140E944506E09309
:1028B8002F0DE0E0EA93A1E4B3E080E090E00E940D
:1028C8007104E7E5FDE0FA93EA93E9EFF2E060E0EE
:1028D80070E00E940122E0912D0DFF2766277727DF
:1028E8000E940122E0912E0DFF27662777270E947C
:1028F8000122E0912F0DFF27662777270E940122EA
:102908008CE00E94171F6296E0912E0DF0E0E8839C
:10291800F983E0E0EA93A1E00E944904A0912E0D1A
:10292800B0E00E945F05E8E0EA93A1E00E94490454
:10293800A0912F0DB0E00E945F05E881AFEFEA0299
:102948000A92A0912F0D0E942603A0912D0DB0E0B0
:10295800E8EEF3E00E945121DF010E946F1FE0E0E2
:10296800EA93A0E00E942603F8C0A0912C0DA130A4
:1029780011F00C94B115629782E1A0E0B0E0E6EAAC
:10298800F1E060E00E945422AA24BB24CC24DD2478
:10299800E0E0EA93ACE4B3E080E090E00E947104E8
:1029A800E7E5FDE0FA93EA93E9EFF2E060E070E032
:1029B8000E940122E0912D0DFF27662777270E94AC
:1029C8000122E0912E0DFF27662777270E9401221A
:1029D800E0912F0DFF27662777270E9401228CE0C0
:1029E8000E94171F6296EDE0EA93A1E00E94490455
:1029F800A0912D0DB0E00E945F05E0E0EA93A0E011
:102A08000E942603A4EFB1E00E946F1FE0912E0DF3
:102A1800F0E0EA8BFB8BEA89AFEFEA020A92A09119
:102A28002E0D0E942603E0912D0DAC81BD818E8173
:102A38009F81FF27662777270E94DF1F0E94F720C4
:102A480019F010F00C94AB15F601AFEFBFEF0E9430
:102A58005F21EA0DFB1DDF01E2E0F0E00E94772133
:102A6800E88BF98BF5010E943C210E94DF1FACE73F
:102A7800B9ED80EA91E40E946420DF01CB01E0E037
:102A8800F0E86DE873E40E94B220EC87FD876E875A
:102A98007F87F6010E943C210E94DF1FACE7B9ED59
:102AA80080EA91E40E946420DF01CB01E0E0F0E8D5
:102AB8006DE873E40E94B220E887F9876A877B870C
:102AC800A885B9858A859B85EC85FD856E857F857A
:102AD8000E941220DF01CB01E0E0F0E068E771E43A
:102AE8000E94B220A0E0B0E080E89FEB0E94642042
:102AF8000E94FC210E94F721E1EEFEE265E672E405
:102B08000E946420EC83FD836E837F83E0E0EA9378
:102B1800A1E00E9449040E94F2210E94A81FDF013F
:102B28000E942005A0E20E940D04E6E0EA93A1E0DD
:102B38000E944904EC81FD816E817F810E94A81F5B
:102B4800DF010E942005A0E20E940D046CCFE0E0A6
:102B5800EA93A0E00E9426036296229608950E94B6
:102B68007C040E944506E093300D0E944506E093E0
:102B7800310D0E944506E093320D0E944506E09310
:102B8800330D0E944506E093340DE091300DE0309E
:102B980011F00C942B162297E091340DEE0FEE0FE6
:102BA800F0E0E883F983E091310DE03069F50E94A7
:102BB8007C04E0E0EA93A9E5B3E080E090E00E94BD
:102BC8007104E091320DE093670DA091670DA1307B
:102BD800D0F0E881F981FA93EA93E091330DF0E0BF
:102BE800FA93EA93A0E40E944E0EE6E1F4E0FA9329
:102BF800EA93A4E1B0E00E940C06E091670DE15071
:102C0800E093670DE2CF22C0A091310DA130F1F41D
:102C18000E947C04E0E0EA93A4E6B3E080E090E060
:102C28000E947104E881F981FA93EA93E091330DE7
:102C3800F0E0FA93EA93A091320DE5D8E6E1F4E0EA
:102C4800FA93EA93A4E1B0E00E940C0661C0A09157
:102C5800300DA13011F00C948D162297E091340DAF
:102C6800EE0FEE0FF0E0E883F983E091310DE030EC
:102C780069F50E947C04E0E0EA93AFE6B3E080E007
:102C880090E00E947104E091320DE093670DA091ED
:102C9800670DA130D0F0E881F981FA93EA93E091C9
:102CA800330DF0E0FA93EA93A0E40E94A90EE6E15E
:102CB800F4E0FA93EA93A4E1B0E00E940C06E091F4
:102CC800670DE150E093670DE2CF22C0A091310D6E
:102CD800A130F1F40E947C04E0E0EA93ABE7B3E0B2
:102CE80080E090E00E947104E881F981FA93EA9308
:102CF800E091330DF0E0FA93EA93A091320D9DD85C
:102D0800E6E1F4E0FA93EA93A4E1B0E00E940C064D
:102D1800229608950E947C040E944506E0934D0D7A
:102D28000E944506E0934E0D0E944506E0934F0D24
:102D3800E0914D0DE03011F00C942C17E0914E0D00
:102D4800E03011F00C94F01622970E947C04E0E029
:102D5800EA93A7E8B3E080E090E00E947104E0E025
:102D6800EA93A1E00E944904A0914F0DB0E00E94AF
:102D78005F05E0914F0DEE0FEE0FF0E0E883F98369
:102D8800FA93EA93E0E4EA93A0E40E94010BE8E0F6
:102D9800EA93A1E00E944904A1E0B0E00E945F0527
:102DA800E6E1F4E0FA93EA93A4E1B0E00E940C06AD
:102DB800E881F981FA93EA93EA81FB810E9425214F
:102DC800FA93EA93A0E40E94BB0BE8E0EA93A1E03F
:102DD8000E944904A2E02FC0A0914E0DA13011F02D
:102DE8000C942B1722970E947C04E0E0EA93A4E954
:102DF800B3E080E090E00E947104E0E0EA93A1E093
:102E08000E944904A0914F0DB0E00E945F05E09137
:102E18004F0DEE0FEE0FF0E0E883F983FA93EA9393
:102E2800E0E4EA93A0E40E94010BE8E0EA93A1E061
:102E38000E944904A1E0B0E00E945F05E6E1F4E0E9
:102E4800FA93EA93A4E1B0E00E940C062296EBC143
:102E5800A0914D0DA13011F00C94A417E0914E0DE6
:102E6800E03011F00C94731722970E947C04E0E084
:102E7800EA93A1EAB3E080E090E00E947104E0E008
:102E8800EA93A1E00E944904A0914F0DB0E00E948E
:102E98005F05E0914F0DEE0FEE0FF0E0E883F98348
:102EA800E6E1F4E0FA93EA93A4E1B0E00E940C06AC
:102EB800E881F981FA93EA93E0E4EA93A0E40E94B6
:102EC8005E0BE881F9810E942521FA93EA93EA8151
:102ED800FB81FA93EA93A0E40E94E50B27C0A09136
:102EE8004E0DA13061F522970E947C04E0E0EA9340
:102EF800ACEAB3E080E090E00E947104E0E0EA937D
:102F0800A1E00E944904A0914F0DB0E00E945F0526
:102F1800E0914F0DEE0FEE0FF0E0E883F983FA939E
:102F2800EA93E0E4EA93A0E40E945E0BE6E1F4E0B1
:102F3800FA93EA93A4E1B0E00E940C06229673C1CA
:102F4800A0914D0DA23011F00C94C418E0914E0DD3
:102F5800E03011F00C94F41722970E947C04E0E012
:102F6800EA93A8EBB3E080E090E00E947104E0E00F
:102F7800EA93A1E00E944904A0914F0DB0E00E949D
:102F88005F05E0914F0DEE0FEE0FF0E0E883F98357
:102F9800E6E1F4E0FA93EA93A4E1B0E00E940C06BB
:102FA800E881F981FA93EA93E0E4EA93A0E40E94C5
:102FB800A20AE881F981FA93EA93EA81FB810E94E7
:102FC8002521FA93EA93A0E40E94BB0BE6E1F4E022
:102FD800FA93EA93A4E1B0E00E940C062296CFC0CF
:102FE800A0914E0DA13011F00C943E1822970E942A
:102FF8007C04E0E0EA93A9ECB3E080E090E00E9472
:103008007104E0E0EA93A1E00E944904A0914F0D09
:10301800B0E00E945F05E0914F0DEE0FEE0FF0E07B
:10302800E883F983E6E1F4E0FA93EA93A4E1B0E0F7
:103038000E940C06E881F981FA93EA93E0E4EA93A6
:10304800A0E40E94A20AE881F9810E942521FA934E
:10305800EA93EA81FB81FA93EA93A0E40E94E50BE4
:10306800E6E1F4E0FA93EA93A4E1B0E00E940C06EA
:10307800229685C0A0914E0DA23011F00C94C31871
:103088002497E0E0E883E983AA24BB24CC24DD2448
:103098000E947C04E0E0EA93A9EDB3E080E090E0D0
:1030A8000E947104E0E0EA93A1E00E944904A09123
:1030B8004F0DB0E00E945F05E0914F0DEE0FEE0F4F
:1030C800F0E0EA83FB83E6E1F4E0FA93EA93A4E113
:1030D800B0E00E940C06EA81FB81FA93EA93E0E4EF
:1030E800EA93A0E40E94A20AEA81FB81FA93EA9398
:1030F800AC81BD810E94E702E881F9810E943C21F0
:103108000E94DF1FDF01CB01E9E4F4E361EE71E423
:103118000E94F72019F010F00C94B218D601AA0DED
:10312800BB1DE2E0F0E00E947721E883F983E0E04C
:10313800EA93A1E00E944904D5010E942005A0E27B
:103148000E940D04E6E0EA93A1E00E944904D6013A
:103158000E942005A0E20E940D04CECFE0E0F0E03E
:10316800FA93EA93A0E0B0E00E94E702E6E1F4E017
:10317800FA93EA93A4E1B0E00E940C06249653C0A7
:10318800A0914D0DA33011F00C94171926970E94A9
:103198007C04E0E0EA93AAEEB3E080E090E00E94CD
:1031A8007104E0914E0DF0E0EA83FB83E0914F0D4E
:1031B800EE0FEE0FF0E0E883F983E0E0EC83ED83B7
:1031C800EA81FB81AC81BD81AE17BF07D8F4E0E08E
:1031D800E0930E0DE0930F0DA0910E0DB0910F0D21
:1031E800A134ECE9BE0740F4E881F981FA93EA9347
:1031F800A0E40E94D509F0CFEC81FD813196EC83E3
:10320800FD83DECFE0E0F0E0FA93EA93A0E0B0E0DF
:103218000E94E702E6E1F4E0FA93EA93A4E1B0E061
:103228000E940C06269608951A930A9306E114E064
:103238000E947C040E944506E093350DE03091F52C
:103248000E944506E093360DE0E0EA93A6EFB3E06E
:1032580080E090E00E947104E1E0EA93A5E0B4E028
:1032680080E090E00E9471041A930A93A091360DB1
:10327800B0E0E8EEF3E00E945121DF010E940C0665
:103288000E947C04E0E0EA93A6EFB3E080E090E0DF
:103298000E947104E1E0EA93A8E0B4E080E090E0E5
:1032A8000E947104A091350DA13011F00C94C7193A
:1032B8000E944506E093360D0E944506E093370DBF
:1032C8000E944506E093380DE0E0E093670DE09139
:1032D800380DA091670DAE1710F00C94C7190E9415
:1032E8007C04E0E0EA93A6EFB3E080E090E00E947F
:1032F8007104E1E0EA93A5E0B4E080E090E00E9488
:103308007104EEE0EA93A1E00E944904A091670DE0
:10331800A05D0E940D041A930A93A091360DB0E0A7
:10332800E8EEF3E00E945121DF010E940C060E94A2
:103338007C04E0E0EA93A6EFB3E080E090E00E942E
:103348007104E1E0EA93A8E0B4E080E090E00E9434
:103358007104EEE0EA93A1E00E944904A091670D90
:10336800AF5C0E940D04A091370DB0E0E8EEF3E0E9
:103378000E945121DF010E946F1FE091670DEF5FEE
:10338800E093670DA4CFA091350DA230C1F50E943E
:103398007C04E0E0EA93ACE0B4E080E090E00E94D6
:1033A8007104E0E0E093670DA091670DAE3438F545
:1033B800E091670DACE8B0E080E0FF27662777274B
:1033C8000E9431210E941B210E94E921FA93EA936D
:1033D800E091670DFF2766277727E85DFE4F6F4F5F
:1033E8006BBFE691ADE0EA9FF001F0E0DF010E94DB
:1033F8000C06E091670DEF5FE093670DD5CF09915B
:1034080019910895A091680DA830B9F50E947C041F
:10341800E0E0EA93ADE1B4E080E090E00E9471045E
:103428000E944506E093390DE0E0E093670DE091D6
:10343800390DA091670DAE1700F5E091670DF0E02A
:10344800E65CF24FFF93EF930E944506AF91BF9160
:10345800EC93E091670DEA93A1E00E944904E091A2
:10346800670DF0E0E65CF24FA0810E940D04E09148
:10347800670DEF5FE093670DDACF08950E947C0433
:10348800E0E0EA93A5E2B4E080E090E00E947104F5
:103498000E944506E093510DE093670DA091670DDA
:1034A800A130B0F0E0E0EA93A1E00E944904E09185
:1034B800670DE150F0E0DF010E945F05A8EEB3E080
:1034C8000E946F1FE091670DE150E093670DE6CF12
:1034D80008950E947C040E944506E0934A0D0E94CC
:1034E8004506E0934B0DE0914A0DE03011F00C9445
:1034F800D41AE0914B0DE030B9F4E0E0EA93ABE286
:10350800B4E080E090E00E947104E1E0EA93A4E373
:10351800B4E080E090E00E947104ACE30E94D20223
:10352800A8E70E94D9023CC0A0914B0DA130B9F484
:10353800E0E0EA93ABE2B4E080E090E00E9471043E
:10354800E1E0EA93AAE3B4E080E090E00E9471042D
:10355800A8E70E94D202ACE30E94D90221C0A09140
:103568004B0DA230E9F40E944506E0934C0DE0E0D3
:10357800EA93ABE2B4E080E090E00E947104E1E0FD
:10358800EA93A0E4B4E080E090E00E947104A09186
:103598004C0DB0E00E945F05A0914C0D0E94D20234
:1035A800A0914A0DA13011F00C94271BE0914B0D0E
:1035B800E03091F4E0E0EA93ACE4B4E080E090E03D
:1035C8000E947104E1E0EA93A4E5B4E080E090E0B1
:1035D8000E947104A6E435C0A0914B0DA13091F46E
:1035E800E0E0EA93ACE4B4E080E090E00E9471048B
:1035F800E1E0EA93A9E5B4E080E090E00E9471047C
:10360800A0EA1FC0A0914B0DA230E9F40E94450624
:10361800E0934C0DE0E0EA93ACE4B4E080E090E0A5
:103628000E947104E1E0EA93AFE5B4E080E090E045
:103638000E947104A0914C0DB0E00E945F05A0911A
:103648004C0D0E94CB02A0914A0DA23011F00C94AF
:10365800CF1BE0914B0DE03011F00C94801BE0E0A3
:10366800EA93A8E6B4E080E090E00E947104E1E00B
:10367800EA93AEE6B4E080E090E00E947104A8EE20
:10368800B3E00E946F1FA0EA0E94CB02A4E10E944F
:10369800D202A0EA0E94D902A4EFB1E00E946F1FF3
:1036A800E1E0EA93A1E00E942603A4EFB1E00E94C2
:1036B8006F1FE0E0EA93A0E00E942603A8E70E94BB
:1036C800D202ACE30E94D902A4EFB1E00E946F1FBE
:1036D800E0EAE093670DA091670DA73460F00E94BF
:1036E800CB02AFE0B0E00E946F1FE091670DE150A0
:1036F800E093670DF0CF4BC0A0914B0DA13011F0B6
:103708000C94CF1BE0E0EA93A8E6B4E080E090E0F8
:103718000E947104E1E0EA93A5E7B4E080E090E05C
:103728000E947104E6E4E093670DA091670DA03A4A
:1037380060F40E94CB02AFE0B0E00E946F1FE091FE
:10374800670DEF5FE093670DF0CFA4EFB1E00E9443
:103758006F1FA4E10E94D202A0EA0E94D902A4EF3E
:10376800B1E00E946F1FEFEFEA93AFEF0E942603CC
:10377800A4EFB1E00E946F1FE0E0EA93A0E00E948E
:103788002603A8E70E94D202ACE30E94D902A4EF64
:10379800B1E00E946F1F0895A8EEB3E00E946F1F6A
:1037A8000E942009E0E0EA93A0E00E9426030E941C
:1037B8003E0F0E947C04E0E0EA93ABE7B4E080E0CF
:1037C80090E00E947104A4EFB1E00E946F1F9B99E2
:1037D80099C0A4E6B0E00E946F1F9B9BFECF0E9499
:1037E8007C04E0E0EA93ADE8B4E080E090E00E9479
:1037F80071040E944506EF3F11F00C94851C0E944D
:103808004506E093680DE6E1F4E0FA93EA93A4E153
:10381800B0E00E940C06E091680DE03011F40E94BF
:103828009210A091680DA13011F00C94661C0E94B2
:103838004506E093520DE03051F4E6E9F0E0FA93E2
:10384800EA93E0E4EA93A0E40E94A20A3BC0A091B4
:10385800520DA13051F4E6E9F0E0FA93EA93E0E47E
:10386800EA93A0E40E94010B2DC0A091520DA23052
:1038780051F4E6E9F0E0FA93EA93E0E4EA93A0E48D
:103888000E945E0B1FC0A091520DA33061F4E6E9BF
:10389800F0E0FA93EA93EAE6FFEFFA93EA93A0E4FA
:1038A8000E94BB0B0FC0A091520DA43059F4EAE658
:1038B800FFEFFA93EA93E6E9F0E0FA93EA93A0E4DB
:1038C8000E94E50BA091680DA43009F448D9A09195
:1038D800680DA53009F41EDAA091680DA63009F428
:1038E800F8DDA091680DA73009F49EDCA091680D61
:1038F800A83009F487DDA091680DA93009F4BEDD70
:1039080078CF6DCF9A9906C0E0E0EA93A0EC0E94C8
:103918002007F8CF9999A3C00E947C04E0E0EA93BD
:10392800AEE9B4E080E090E00E947104E1E0EA933F
:10393800A6EAB4E080E090E00E947104A4EFB1E050
:103948000E946F1F9B993FC0989B38C00E947C04BF
:10395800E0E0EA93A4EBB4E080E090E00E94710418
:10396800E0E0EA93A1E00E944904A0E0B0E00E94F0
:103978001D22DF010E945F05A4E6B0E00E946F1FD0
:103988009B990DC0A4E6B0E00E946F1FA0E0B0E0D4
:103998000E941D2231960E942D2231970EC09A99BD
:1039A8000CC0A4E6B0E00E946F1FA0E0B0E00E9447
:1039B8001D2231970E942D223196C6CFA8EEB3E082
:1039C8000E946F1F4AC09A993FC0989B38C00E94B6
:1039D8007C04E0E0EA93A1EBB4E080E090E00E9490
:1039E8007104E0E0EA93A1E00E944904A2E0B0E09B
:1039F8000E941D22DF010E945F05A4E6B0E00E943C
:103A08006F1F9B990DC0A4E6B0E00E946F1FA2E053
:103A1800B0E00E941D2231960E942D2231970EC0DF
:103A28009A990CC0A4E6B0E00E946F1FA2E0B0E033
:103A38000E941D2231970E942D223196C6CFA8EEF2
:103A4800B3E00E946F1F09C0989907C00E947C04C8
:103A5800A8EEB3E00E946F1F01C074CF5BCF989BA4
:103A6800FECFA7CEFFCFBA93AA931A930A93AA813F
:103A7800BB8112960E94D521309759F1AA81BB814A
:103A880014960E94D5218F01309761F00230E0E052
:103A98001E07F0F0F80131978F01AA81BB811496B7
:103AA800ED93FC93AA81BB811296ED91FD9131961D
:103AB800FE93EE933197AC81A083AA81BB810E94CB
:103AC800D521FF232AF0ED91FD913196FE93EE93D7
:103AD80006C0AA81BB81EFEFFFEFED93FC9319813C
:103AE800088125960895BA93AA9328970E9446229A
:103AF80010E0AE85BF85E0E0F0E0ED93FC93DE01D9
:103B080054960E94DF21EF5FFF4F6F4F7F4F0E9457
:103B1800E421E150F040604070406BBFE6912E2FE9
:103B2800E03011F40C940F1FE12FE03059F42532E6
:103B380011F411E006C02A93AF85B889E989FA899A
:103B4800099568C1E130C9F4253239F42A93AF8563
:103B5800B889E989FA8909955CC112E040E000E07A
:103B68002D3211F401E056C12B3211F44BE252C14F
:103B7800203211F440E24EC102C0E23039F450E084
:103B880013E0203311F4006845C104C0E33011F09C
:103B98000C940E1F203310F02A3308F007C0AAE057
:103BA8005A9F502DE22FE0535E0F34C1E22FE336C7
:103BB80069F4EA89FB893497EA8BFB8BA481AA9381
:103BC800AF85B889E989FA89099523C1E33791F462
:103BD800EA89FB893497EA8BFB8BAA89BB891496FF
:103BE8000E94D521EE83FF83AE81BF810E94531FBF
:103BF8001E2F18C0E037D1F4EA89FB893497EA8B85
:103C0800FB8BAA89BB8914960E94D921EE83FF8376
:103C180068877987AE81BF81888599850E945F1FF3
:103C28001E2F086002600F7730E04BC0E43611F0B9
:103C3800E93611F4046002C0E53751F4E6E7F1E033
:103C480060E070E0EE83FF836887798715E011C034
:103C5800E83511F4086004C0E83711F00C940D1F22
:103C6800E0E8F1E060E070E0EE83FF836887798741
:103C780014E002FF1AC0EA89FB893497EA8BFB8BB0
:103C8800AA89BB8914960E94D521EC87FD87AD854A
:103C9800AA232AF40E942521EC87FD874DE24030B3
:103CA80011F01F5F01C00B7F0CC0EA89FB893497B4
:103CB800EA8BFB8BAA89BB8914960E94D521EC87D5
:103CC800FD8700FD15C0151798F407FF08C002FF0F
:103CD80004C00B7F242F115001C020E301C020E253
:103CE8002A93AF85B889E989FA8909955150EBCFAC
:103CF800312F01FF26C0303019F103FF11C0DE015A
:103D080016960E94DF21EF5FFF4F6F4F7F4F0E9493
:103D1800E421E150F040604070406BBF269105C03F
:103D2800AE81BF812D91AE83BF832A93AF85B889B9
:103D3800E989FA890995503009F051503150DBCFA3
:103D48005BC020E3EE81FF81688579850E94E921C7
:103D5800EA87FB87EE81FF8168857985EE5FFF4FF3
:103D68006F4F7F4FEE83FF8368877987EA85FB85EE
:103D7800AC85BD85AE17BF0750F02F5FAA85BB8500
:103D8800EC85FD85EA1BFB0BEC87FD87EFCF2A331B
:103D980028F003FF02C0295F01C0295D04FD1DC092
:103DA800213320F4AA85BB85119709F409C053175C
:103DB80010F000FF01C01AC020E207FF0EC020E388
:103DC800006102FF0AC00B7F4A93AF85B889E98971
:103DD800FA890995503009F051502A93AF85B8896E
:103DE800E989FA890995503009F051503150AA856E
:103DF800BB85129708F0A5CF00FF0BC0503049F0E3
:103E08005150E0E2EA93AF85B889E989FA890995C2
:103E1800F5CF10E074CEAE85BF850E94D5210E94F3
:103E28004D2268960895FF92F82E26970E94482200
:103E3800DE011E960E9417210E94D521309719F4A1
:103E4800EFEFFFEF27C0DE0116960E9417218D01C4
:103E5800DE011E960E9417210E94D521EE83FF8362
:103E6800E0E0E887E987DE011A960E9417210E94A0
:103E7800D9210E9401221A930A93E7E3FDE1FA93FC
:103E8800EA93DE011C962FDE9F01AE81BF81E0E040
:103E9800EC93F9010E944F222A96FF900895BA9355
:103EA800AA93A991B991EE27FF276D91662311F086
:103EB8003196FBCF08950E940622AA27BB27E991D5
:103EC800F991699179916BBF0790002011F01196D3
:103ED800FBCFFD010895109639F080EA9FE0019725
:103EE800F1F7A8951197C9F70895552342F450386A
:103EF80011F4E0FF04C03196691F791F6BF050E898
:103F0800572711F45F93CAC05F3F31F0660F000C6A
:103F180057956795752F08955F9300200AF0CAC0DA
:103F2800C3C050E8192E1522880F991F9527550FE1
:103F3800879550E8072E0522660F771F7527550FBE
:103F480067950895689401C0E8945F93F2DF70382C
:103F580018F07F3F08F4A2C056E1571BAAF4519508
:103F680058300EF4593030F0EFEFFFEF6FEF7FE786
:103F780077F91AC077275523B9F0EE0FFF1F661F90
:103F8800771F5A95D1F710C07727583028F0EF2FB0
:103F9800F62F672F5850F9CF552331F0769567954E
:103FA800F795E7955A95D1F700200AF44ED15F911D
:103FB8000895689401C0E894309760407040B1F06B
:103FC800002426F0772312F400943FD1172E7EE1C7
:103FD800112032F07A95EE0FFF1F661F111CF9CFE2
:103FE800EF2FF62F612D5F938ADF5F9108954F932E
:103FF800AF01FD01DA01AB01BC01CA01402D012C62
:10400800142E4F910895EA0FFB1F681F0895E0953D
:10401800F0956095EF5FFF4F6F4F08955F9381DFD5
:10402800903849F150E81526703821F1572F591B5F
:104038002BF112F4DCDFFACF583118F0AA27BB278E
:104048008827583028F0AB2FB82F88275850F9CF39
:10405800552329F08695B795A7955A95D9F7502DE8
:10406800512572F0D0DF38F46795F795E795739589
:1040780013F420C0BCDF43DF5F910895D8F7FBCF6E
:10408800EA1BFB0B680B51F010F40094C0DF6623A9
:1040980092F3EE0FFF1F661F7A95CBF7EE27FF27E7
:1040A800662777275F910895EFEFFFEF6FE77FEFC0
:1040B8005F910895EFEFFFEF6FE77FE75F91089556
:1040C8005F932FDF703851F3903841F3012408943F
:1040D800791F23F41CF300203AF3ECCF0F921F93BF
:1040E8002F933F934F93112722279927689FA00169
:1040F8008F9F302D410D591F6B9F300D411D591F4A
:104108008E9F27D0BF9F25D06A9F23D0BE9F1DD0EA
:10411800AF9F1BD0AE9F110D291F391F491F591F73
:10412800E32FF42F652F522F4F913F912F911F911D
:104138000F9066232AF0550FEE1FFF1F661F02C05F
:1041480073954BF2D2DE5F910895100D211D391F32
:1041580002C0200D311D491F591F08955F93E1DEEC
:10416800703821F411200AF49FCFA4CF903809F4B5
:1041780095CF01240894970B1BF4D4F30020F3CFB8
:10418800792F1F932F933F934F93112411272227A1
:1041980033274427552790E2AE17BF078607410704
:1041A80030F0AE1BBF0B860B410B089401C08894FE
:1041B800551F221F331F111CAA1FBB1F881F441F16
:1041C8009A9551F7F901612D4F913F912F911F91C8
:1041D800662332F0550FEE1FFF1F661F7A9543F2D4
:1041E80084DE5F91089599239AF0772342F0971718
:1041F80048F029F4AE17BF07860720F031F09894ED
:104208008894089598940894089518948894089523
:104218007723C2F7971798F3A9F7EA17FB076807F8
:1042280088F399F3ECCF0024AF0DB01D0895EA0F81
:10423800FB1F681F791F0895EA1BFB0B680B790B9E
:104248000895F195E195F0400895F0956095709581
:10425800E195FF4F6F4F7F4F0895EE0FFF1F661FC9
:10426800771F0895FE2FFF0FFF0B6F2F7F2F0895E5
:104278006F2F660F660B762F08958B2F880F880B8C
:10428800982F0895EA17E1E009F0EE270895EA1754
:10429800FB07E1E00CF0EE270895FA9FF02DEB9F65
:1042A800F00DEA9FE02DF10D08956E2F6A9FF00141
:1042B8006B9FF00D089554D0F0DF0EF4C2DF08951F
:1042C8000024112490E1AA0FBB1F001C111C0E1A18
:1042D8001F0A18F40E0E1F1E01C0A1609A9599F7C7
:1042E800FD01D00108953CD0EBDF0EF4AADF08955C
:1042F8003F934F935F93002411244427552730E2BE
:10430800AA0FBB1F881F991F001C111C441F551F93
:104318000E1A1F0A460B570B28F40E0E1F1E461FB7
:10432800571F01C0A1603A9559F7FD01BC01D001A2
:10433800CA015F914F913F91089520D0D9DF0EF4C3
:1043480084DF0895E894B7FF04C0A095B09511964E
:104358006894F7FD76DFB4DFFD010EF472DF08958F
:10436800E894F7FF02C06DDF6894B7FF06C0A09518
:10437800B095119600F8039400FA0895E89477FF31
:1043880002C063DF689497FF0BC00024A095B09526
:10439800809590951196801D901D00F8039400FA61
:1043A8000895ED91FC9111970895ED91FD916D910E
:1043B8007C9113970895ED91FD916D917D910895EC
:1043C8007E936E93FE93EE9308956BBF0790F691DC
:1043D800E02D08956BBFA791B6910895E881F98102
:1043E8006A817B810895A881B9818A819B8108951A
:1043F800E883F9836A837B8308957A936A93FA93AF
:10440800EA9308959A938A93BA93AA93089568941D
:1044180001C0E89401D0D0DD182E862F612D192E09
:10442800972F712D1B2EBF2FF12D1A2EAE2FE12D98
:104438000895119602D0FE2F1197E199FECFFF93B0
:10444800FFB7F894AEBBBFBBE09AEDB3FFBFFF91D7
:10445800089507D01196EF93EF2F03D0EF9111979E
:104468000895E19B02C0A895FCCF9FB7F894AEBB16
:10447800BFBBE09A8DB3E81719F0EDBBE29AE19A59
:104488009FBF08955A934A933A932A931A930A938B
:1044980008955D814C813B812A81198108810895A5
:1044A800AC0FBD1F6BBF07900D928A95E1F7089579
:00000001FF
