:1000000020C0FECFFDCFFCCFFBCFFACFF9CFF8CF8A
:10001000F7CFF6CFF5CF44C0F3CFF2CFF1CFF0CF8B
:10002000EFCFEECFEDCF1027E80364000A00010008
:100030000010000110000100000001000200380063
:100040000000F894EE27ECBBF1E0FBBFEBBFE5BF8F
:10005000F8E1F1BDE1BD8DE0A2E0BB27ED938A950B
:10006000E9F780E094E0A0E6ED930197E9F7EAE391
:10007000F0E085919591009761F0A591B59105907B
:100080001590BF01F00105900D920197E1F7FB017A
:10009000F0CFEFE5EDBFE4E0EEBFC0E6D1E0D6C3C0
:1000A000AA93BA93EA93FA93EFB7EA930ED50BB1FA
:1000B0001CB1E02FEC7121F4E12FEF704E1609F026
:1000C00014C0E32D3394F0E0E858FE4FDF01E12F38
:1000D000E07FEC93E8E0E31509F433245394E8E07F
:1000E000E51519F45524689420F8F7D4E991EFBF89
:1000F000F991E991B991A99118951A935520F1F3C5
:10010000E62D6394F0E0E858FE4F1081E8E0E61534
:1001100009F46624F8945A947894E12F51C1AA9373
:10012000E881E062E7B985E38A95F1F7369A8BE1D9
:100130008A95F1F76EC4349BFECF349AE5B10895E9
:10014000BA93AA93C0D430E0C19AC29AC39AC49A0F
:10015000959A929A939A949A80E58A95F1F7A6E0F7
:10016000DEDFC198E8DF1E2F85E88A95F1F7A6E06B
:10017000D6DFC19AE0DF0E2F101740F4A02FA11B8D
:10018000EC81FD81E081EA1708F4316080E58A9511
:10019000F1F7A7E0C4DFC298CEDF1E2F85E88A956D
:1001A000F1F7A7E0BCDFC29AC6DF0E2F101740F4AC
:1001B000A02FA11BEC81FD81E181EA1708F43260D8
:1001C00080E58A95F1F7A1E0AADFC398B4DF1E2F7E
:1001D00085E88A95F1F7A1E0A2DFC39AACDF0E2F84
:1001E000101740F4A02FA11BEC81FD81E281EA17DA
:1001F00008F4346080E58A95F1F7A0E090DFC498B8
:100200009ADF1E2F85E88A95F1F7A0E088DFC49A6F
:1002100092DF0E2F101740F4A02FA11BEC81FD815F
:10022000E381EA1708F4386080E58A95F1F7A2E0E7
:1002300076DF959880DF1E2F85E88A95F1F7A2E09A
:100240006EDF959A78DF0E2F101740F4A02FA11BB8
:10025000EC81FD81E481EA1708F4306180E58A953C
:10026000F1F7A3E05CDF929866DF1E2F85E88A95A0
:10027000F1F7A3E054DF929A5EDF0E2F101740F4DF
:10028000A02FA11BEC81FD81E581EA1708F4306203
:1002900080E58A95F1F7A4E042DF93984CDF1E2FAA
:1002A00085E88A95F1F7A4E03ADF939A44DF0E2FB0
:1002B000101740F4A02FA11BEC81FD81E681EA1705
:1002C00008F4306480E58A95F1F7A5E028DF94987A
:1002D00032DF1E2F85E88A95F1F7A5E020DF949A9A
:1002E0002ADF0E2F101740F4A02FA11BEC81FD81F7
:1002F000E781EA1708F4306897989698C098E32F3A
:10030000E7D3269608951A9310E0183030F5E12FC0
:10031000F0E0E05AFE4F0F01A12FB0E0A050B04036
:10032000B5D3D001EC93E12FF0E0E859FE4F0F0177
:10033000A12FB0E0A85FBF4FA9D3D001EC93E12F6C
:10034000F0E0E059FE4F0F01A12FB0E0A05FBF4FDA
:100350009DD3D001EC931F5FD8CF32C01A9310E029
:10036000183060F4A12FB0E0A050B040E12FF0E0D1
:10037000E05AFE4FE08196D31F5FF2CF21C01A935F
:1003800010E0183060F4A12FB0E0A85FBF4FE12F5C
:10039000F0E0E859FE4FE08185D31F5FF2CF10C037
:1003A0001A9310E0183060F4A12FB0E0A05FBF4FA7
:1003B000E12FF0E0E059FE4FE08174D31F5FF2CFF0
:1003C00019910895979A9698C098A0E6B1E00BC04D
:1003D0009798969AC098A8E6B1E005C09798969825
:1003E000C09AA0E7B1E0ACDE0895AA9360971A9393
:1003F00010E0183070F4E12FF0E0DE011196EE0FFE
:10040000FF1FAE0FBF1FE0E0F0E0ED93FC931F5F16
:10041000F0CF10E01A3008F0E2C080E58A95F1F7DD
:10042000A6E07DDEC19887DEA981BA81F0E0AE1B2F
:10043000BF0BA983BA8385E88A95F1F7A6E06FDE42
:10044000C19A79DEA981BA81F0E0EA0FFB1FE98346
:10045000FA8380E58A95F1F7A7E061DEC2986BDE4A
:10046000AB81BC81F0E0AE1BBF0BAB83BC8385E8E6
:100470008A95F1F7A7E053DEC29A5DDEAB81BC81BD
:10048000F0E0EA0FFB1FEB83FC8380E58A95F1F730
:10049000A1E045DEC3984FDEAD81BE81F0E0AE1B2A
:1004A000BF0BAD83BE8385E88A95F1F7A1E037DE07
:1004B000C39A41DEAD81BE81F0E0EA0FFB1FED8300
:1004C000FE8380E58A95F1F7A0E029DEC49833DE4B
:1004D000AF81B885F0E0AE1BBF0BAF83B88785E86E
:1004E0008A95F1F7A0E01BDEC49A25DEAF81B885BE
:1004F000F0E0EA0FFB1FEF83F88780E58A95F1F7BC
:10050000A2E00DDE959817DEA985BA85F0E0AE1B56
:10051000BF0BA987BA8785E88A95F1F7A2E0FFDDCE
:10052000959A09DEA985BA85F0E0EA0FFB1FE987F5
:10053000FA8780E58A95F1F7A3E0F1DD9298FBDD7B
:10054000AB85BC85F0E0AE1BBF0BAB87BC8785E8F5
:100550008A95F1F7A3E0E3DD929AEDDDAB85BC85EA
:10056000F0E0EA0FFB1FEB87FC8780E58A95F1F747
:10057000A4E0D5DD9398DFDDAD85BE85F0E0AE1B50
:10058000BF0BAD87BE8785E88A95F1F7A4E0C7DD8C
:10059000939AD1DDAD85BE85F0E0EA0FFB1FED87B4
:1005A000FE8780E58A95F1F7A5E0B9DD9498C3DD73
:1005B000AF85B889F0E0AE1BBF0BAF87B88B85E87D
:1005C0008A95F1F7A5E0ABDD949AB5DDAF85B889E2
:1005D000F0E0EA0FFB1FEF87F88B1F5F1BCF10E0E7
:1005E000183050F5E12FAA89BB89F0E0EA0FFB1F14
:1005F000FF93EF93EE27A10FBE1FAC91BB27E989B4
:10060000E150F0E014D2BF01E12FF0E0DE011196DD
:10061000EE0FFF1FAE0FBF1F35D2DF01EAE0F0E0A3
:100620000BD2DB01AE0FBF1FE989F0E018D2AF910A
:10063000BF91EC931F5FD4CF1881649608955DDD60
:10064000E03F09F046C0979A9698C098E0E6F1E03E
:10065000FA93EA93A1E0C9DE50DDE03FD1F5979827
:10066000969AC098E8E6F1E0FA93EA93A1E0BDDE3D
:1006700097989698C09AE0E7F1E0FA93EA93A1E0A0
:10068000B4DE3BDDE03F29F5979A9698C098E0E606
:10069000F1E0FA93EA93A2E0A8DE97989698C09AC0
:1006A000E0E7F1E0FA93EA93A2E09FDE26DDE03F87
:1006B00081F49798969AC098E8E6F1E0FA93EA9365
:1006C000A2E093DE4BDE5BDE6BDEA8E1B0E0E0EFA4
:1006D000B8C0BAC012DDE03D81F5979A9698C098EF
:1006E000E0E6F1E0FA93EA93A1E07FDE06DDE03D8B
:1006F00021F5979A9698C098E0E6F1E0FA93EA938C
:10070000A2E073DE97989698C09AE0E7F1E0FA933A
:10071000EA93A1E06ADEF1DCE03D79F497989698DF
:10072000C09AE0E7F1E0FA93EA93A2E05EDE16DE1B
:1007300037DEA8E1B0E0E0ED84C086C0DEDCE03E5C
:1007400081F5979A9698C098E0E6F1E0FA93EA93DB
:10075000A1E04BDED2DCE03E21F5979A9698C09856
:10076000E0E6F1E0FA93EA93A2E03FDE9798969AEA
:10077000C098E8E6F1E0FA93EA93A1E036DEBDDC4A
:10078000E03E79F49798969AC098E8E6F1E0FA93FB
:10079000EA93A2E02ADEE2DDF2DDA8E1B0E0E0EEDD
:1007A00050C052C0AADCE03CB9F4979A9698C09821
:1007B000E0E6F1E0FA93EA93A1E017DE9EDCE03C8C
:1007C00059F4E0E6F1E0FA93EA93A2E00EDEC6DD2A
:1007D000A8E1B0E0E0EC35C037C08FDCE039B9F417
:1007E00097989698C09AE0E7F1E0FA93EA93A1E02F
:1007F000FCDD83DCE03959F4E0E7F1E0FA93EA93B9
:10080000A2E0F3DDCDDDA8E1B0E0E0E91AC01CC054
:1008100074DCE03AC9F49798969AC098E8E6F1E05B
:10082000FA93EA93A1E0E1DD68DCE03A69F4E8E6F6
:10083000F1E0FA93EA93A2E0D8DDA1DDA8E1B0E00F
:10084000E0EA30D1E1E00895E0E00895EEE3E8BBAE
:10085000EFE3E7BBE0E0E5BBE4BBECE1E2BBECEFE0
:10086000E1BBE0E0E3BFE2BFEFBDEEBDEDBDECBD3F
:10087000E7BDE6BDEBBDEABDE9BDE8BDE2BDE5BD56
:10088000E4BDE3BDE5BFE9BFEBB9E8E9EAB9E6E8F5
:10089000E0BDE0E0E0BDE7E6E9B9E0E8E8B9E0E0C6
:1008A000E0BFE0E2E7B9E5E8E6B9E0E0EDB9E6BFD0
:1008B000A9E1B0E0EBD0EF3F21F4A9E1B0E0E0E046
:1008C000F1D0A9E1B0E0E2D04E2E1DDD789415DC28
:1008D0001E2FE12FEF700E2EA9E1B0E0D7D0E0156A
:1008E00009F090C0E12FE03781F4979A9698C0986C
:1008F000E42DE067AE2F88D065DDAE2F85D068DDB2
:10090000AE2F82D06BDDAE2F7CC0E03651F4E42DEB
:10091000E066AE2F79D056DDAE2F76D059DDAE2F02
:1009200070C0E03551F4E42DE065AE2F6DD04ADDA6
:10093000AE2F6AD053DDAE2F64C0E03351F4E42D06
:10094000E063AE2F61D044DDAE2F5ED047DDAE2F29
:1009500058C0E03439F4E42DE064AE2F55D032DDD8
:10096000AE2F4FC0E03239F4E42DE062AE2F4CD010
:100970002FDDAE2F46C0E03139F4E42DE061AE2F1B
:1009800043D02CDDAE2F3DC0E03F41F458DEE030D7
:1009900011F0A0EF01C0A0E037D034C0E03D41F439
:1009A00099DEE03011F0A0ED01C0A0E02DD02AC00A
:1009B000E03E41F4C3DEE03011F0A0EE01C0A0E063
:1009C00023D020C0E03C41F4EDDEE03011F0A0EC9B
:1009D00001C0A0E019D016C0E03941F4FEDEE030DD
:1009E00011F0A0E901C0A0E00FD00CC0E03A41F442
:1009F0000FDFE03011F0A0EA01C0A0E005D002C096
:100A0000A0E002D064CFFFCFAA935D9BFECFE88128
:100A1000ECB921960895F195E195F0400895FA9F7B
:100A2000F02DEB9FF00DEA9FE02DF10D08951CD005
:100A3000F6DF0EF4F0DF08950024112490E1AA0FF0
:100A4000BB1F001C111C0E1A1F0A18F40E0E1F1ECD
:100A500001C0A1609A9599F7FD01D001089504D0D5
:100A6000EBDF0EF4D8DF0895E894F7FF02C0D3DF80
:100A70006894B7FF06C0A095B095119600F803944E
:100A800000FA0895ED91FC9111970895E199FECF38
:100A9000FF93FFB7F894AEBBBFBBE09AEDB3FFBFC7
:100AA000FF910895E19B02C0A895FCCF9FB7F894F1
:100AB000AEBBBFBBE09A8DB3E81719F0EDBBE29A6D
:100AC000E19A9FBF08953A932A931A930A9308953F
:100AD0003B812A811981088108950991199108950E
:00000001FF
